{"abi":[{"type":"constructor","inputs":[{"name":"owner_","type":"address","internalType":"address"},{"name":"_aavePoolAddressProvider","type":"address","internalType":"address"}],"stateMutability":"nonpayable"},{"type":"function","name":"POOL_ADDRESSES_PROVIDER_ADDRESS","inputs":[],"outputs":[{"name":"","type":"address","internalType":"address"}],"stateMutability":"view"},{"type":"function","name":"aaveReferralCode","inputs":[],"outputs":[{"name":"","type":"uint16","internalType":"uint16"}],"stateMutability":"view"},{"type":"function","name":"allVaults","inputs":[{"name":"","type":"uint256","internalType":"uint256"}],"outputs":[{"name":"","type":"address","internalType":"address"}],"stateMutability":"view"},{"type":"function","name":"checkUpkeep","inputs":[{"name":"","type":"bytes","internalType":"bytes"}],"outputs":[{"name":"upkeepNeeded","type":"bool","internalType":"bool"},{"name":"performData","type":"bytes","internalType":"bytes"}],"stateMutability":"view"},{"type":"function","name":"createVault","inputs":[{"name":"color","type":"uint8","internalType":"uint8"},{"name":"name","type":"string","internalType":"string"}],"outputs":[],"stateMutability":"nonpayable"},{"type":"function","name":"getVaults","inputs":[{"name":"user","type":"address","internalType":"address"}],"outputs":[{"name":"","type":"address[]","internalType":"address[]"}],"stateMutability":"view"},{"type":"function","name":"isWhitelistedStrategy","inputs":[{"name":"strategyAddress","type":"address","internalType":"address"}],"outputs":[{"name":"whitelisted","type":"bool","internalType":"bool"}],"stateMutability":"view"},{"type":"function","name":"owner","inputs":[],"outputs":[{"name":"","type":"address","internalType":"address"}],"stateMutability":"view"},{"type":"function","name":"performUpkeep","inputs":[{"name":"performData","type":"bytes","internalType":"bytes"}],"outputs":[],"stateMutability":"nonpayable"},{"type":"function","name":"renounceOwnership","inputs":[],"outputs":[],"stateMutability":"nonpayable"},{"type":"function","name":"setAaveReferralCode","inputs":[{"name":"_aaveReferralCode","type":"uint16","internalType":"uint16"}],"outputs":[],"stateMutability":"nonpayable"},{"type":"function","name":"transferOwnership","inputs":[{"name":"newOwner","type":"address","internalType":"address"}],"outputs":[],"stateMutability":"nonpayable"},{"type":"function","name":"unwhitelistStrategy","inputs":[{"name":"strategy","type":"address","internalType":"address"}],"outputs":[],"stateMutability":"nonpayable"},{"type":"function","name":"vaults","inputs":[{"name":"user","type":"address","internalType":"address"},{"name":"","type":"uint256","internalType":"uint256"}],"outputs":[{"name":"vaults","type":"address","internalType":"address"}],"stateMutability":"view"},{"type":"function","name":"whitelistStrategy","inputs":[{"name":"strategy","type":"address","internalType":"address"}],"outputs":[],"stateMutability":"nonpayable"},{"type":"event","name":"OwnershipTransferred","inputs":[{"name":"previousOwner","type":"address","indexed":true,"internalType":"address"},{"name":"newOwner","type":"address","indexed":true,"internalType":"address"}],"anonymous":false},{"type":"event","name":"UnwhitelistStrategy","inputs":[{"name":"strategy","type":"address","indexed":false,"internalType":"address"}],"anonymous":false},{"type":"event","name":"VaultCreated","inputs":[{"name":"vault","type":"address","indexed":false,"internalType":"address"},{"name":"user","type":"address","indexed":false,"internalType":"address"}],"anonymous":false},{"type":"event","name":"WhitelistStrategy","inputs":[{"name":"strategy","type":"address","indexed":false,"internalType":"address"}],"anonymous":false},{"type":"error","name":"OwnableInvalidOwner","inputs":[{"name":"owner","type":"address","internalType":"address"}]},{"type":"error","name":"OwnableUnauthorizedAccount","inputs":[{"name":"account","type":"address","internalType":"address"}]}],"bytecode":{"object":"0x60a06040525f805461ffff60a01b1916905534801561001c575f5ffd5b50604051612a13380380612a1383398101604081905261003b916100ef565b816001600160a01b03811661006957604051631e4fbdf760e01b81525f600482015260240160405180910390fd5b61007281610085565b506001600160a01b031660805250610120565b5f80546001600160a01b038381166001600160a01b0319831681178455604051919092169283917f8be0079c531659141344cd1fd0a4f28419497f9722a3daafe3b4186f6b6457e09190a35050565b80516001600160a01b03811681146100ea575f5ffd5b919050565b5f5f60408385031215610100575f5ffd5b610109836100d4565b9150610117602084016100d4565b90509250929050565b6080516128d461013f5f395f818161018901526102b001526128d45ff3fe608060405234801561000f575f5ffd5b50600436106100f0575f3560e01c80637bbfc69e11610093578063a192c28811610063578063a192c2881461020c578063ae7742561461023e578063f2fde38b14610251578063fe7c9c9214610264575f5ffd5b80637bbfc69e146101c35780638da5cb5b146101d65780639094a91e146101e657806392a88847146101f9575f5ffd5b80634585e33b116100ce5780634585e33b146101485780636e04ff0d1461015b578063715018a61461017c57806371bfc18914610184575f5ffd5b806308e169d9146100f45780630b189c621461010957806331bdd1bd14610135575b5f5ffd5b6101076101023660046109d8565b610284565b005b5f5461011d90600160a01b900461ffff1681565b60405161ffff90911681526020015b60405180910390f35b610107610143366004610a45565b6102ad565b610107610156366004610af1565b6103bd565b61016e610169366004610af1565b6104b7565b60405161012c929190610ba2565b6101076106cc565b6101ab7f000000000000000000000000000000000000000000000000000000000000000081565b6040516001600160a01b03909116815260200161012c565b6101ab6101d1366004610bdf565b6106df565b5f546001600160a01b03166101ab565b6101ab6101f4366004610c07565b610713565b610107610207366004610c1e565b61073b565b61022e61021a366004610c1e565b60036020525f908152604090205460ff1681565b604051901515815260200161012c565b61010761024c366004610c1e565b61079a565b61010761025f366004610c1e565b6107f5565b610277610272366004610c1e565b610837565b60405161012c9190610c37565b61028c6108aa565b5f805461ffff909216600160a01b0261ffff60a01b19909216919091179055565b5f7f0000000000000000000000000000000000000000000000000000000000000000303385856040516102df906109cb565b6102ed959493929190610c82565b604051809103905ff080158015610306573d5f5f3e3d5ffd5b50335f8181526002602090815260408083208054600180820183559185528385200180546001600160a01b0388166001600160a01b0319918216811790925582548084018455929095527fb10e2d527612073b26eecdfd717e6a320cf44b4afac2b0732d9fcbe2b7fa0cf6909101805490941681179093558051928352908201929092529192507f5d9c31ffa0fecffd7cf379989a3c7af252f0335e0d2a1320b55245912c781f53910160405180910390a1505050565b5f6103ca82840184610cc9565b90505f5b81518110156104b1575f8282815181106103ea576103ea610d6d565b60200260200101519050806001600160a01b0316630e3a6e656040518163ffffffff1660e01b8152600401602060405180830381865afa158015610430573d5f5f3e3d5ffd5b505050506040513d601f19601f820116820180604052508101906104549190610d81565b156104a857806001600160a01b031663cba388d56040518163ffffffff1660e01b81526004015f604051808303815f87803b158015610491575f5ffd5b505af11580156104a3573d5f5f3e3d5ffd5b505050505b506001016103ce565b50505050565b5f60605f60018054905067ffffffffffffffff8111156104d9576104d9610a00565b604051908082528060200260200182016040528015610502578160200160208202803683370190505b5090505f805b600154811015610673575f6001828154811061052657610526610d6d565b5f91825260209182902001546040805163654e5aa960e11b815290516001600160a01b039092169350839263ca9cb552926004808401938290030181865afa158015610574573d5f5f3e3d5ffd5b505050506040513d601f19601f820116820180604052508101906105989190610d81565b80156105ff5750806001600160a01b0316630e3a6e656040518163ffffffff1660e01b8152600401602060405180830381865afa1580156105db573d5f5f3e3d5ffd5b505050506040513d601f19601f820116820180604052508101906105ff9190610d81565b1561066a576001828154811061061757610617610d6d565b905f5260205f20015f9054906101000a90046001600160a01b031684848151811061064457610644610d6d565b6001600160a01b03909216602092830291909101909101528261066681610da0565b9350505b50600101610508565b5080156106ae576001935061068882826108d6565b6040516020016106989190610c37565b60405160208183030381529060405292506106c3565b5f935060405180602001604052805f81525092505b50509250929050565b6106d46108aa565b6106dd5f61097c565b565b6002602052815f5260405f2081815481106106f8575f80fd5b5f918252602090912001546001600160a01b03169150829050565b60018181548110610722575f80fd5b5f918252602090912001546001600160a01b0316905081565b6107436108aa565b6001600160a01b0381165f81815260036020908152604091829020805460ff1916905590519182527f278b08b0a992b021696794bbde150cad87a1f7cd2f6991bf8596cea29037a27391015b60405180910390a150565b6107a26108aa565b6001600160a01b0381165f81815260036020908152604091829020805460ff1916600117905590519182527ffd48b52e096de71b5f14d035967a94dc41954c54420d19a88223b3702c453eee910161078f565b6107fd6108aa565b6001600160a01b03811661082b57604051631e4fbdf760e01b81525f60048201526024015b60405180910390fd5b6108348161097c565b50565b6001600160a01b0381165f9081526002602090815260409182902080548351818402810184019094528084526060939283018282801561089e57602002820191905f5260205f20905b81546001600160a01b03168152600190910190602001808311610880575b50505050509050919050565b5f546001600160a01b031633146106dd5760405163118cdaa760e01b8152336004820152602401610822565b60605f8267ffffffffffffffff8111156108f2576108f2610a00565b60405190808252806020026020018201604052801561091b578160200160208202803683370190505b5090505f5b838110156109745784818151811061093a5761093a610d6d565b602002602001015182828151811061095457610954610d6d565b6001600160a01b0390921660209283029190910190910152600101610920565b509392505050565b5f80546001600160a01b038381166001600160a01b0319831681178455604051919092169283917f8be0079c531659141344cd1fd0a4f28419497f9722a3daafe3b4186f6b6457e09190a35050565b611ada80610dc583390190565b5f602082840312156109e8575f5ffd5b813561ffff811681146109f9575f5ffd5b9392505050565b634e487b7160e01b5f52604160045260245ffd5b604051601f8201601f1916810167ffffffffffffffff81118282101715610a3d57610a3d610a00565b604052919050565b5f5f60408385031215610a56575f5ffd5b823560ff81168114610a66575f5ffd5b9150602083013567ffffffffffffffff811115610a81575f5ffd5b8301601f81018513610a91575f5ffd5b803567ffffffffffffffff811115610aab57610aab610a00565b610abe601f8201601f1916602001610a14565b818152866020838501011115610ad2575f5ffd5b816020840160208301375f602083830101528093505050509250929050565b5f5f60208385031215610b02575f5ffd5b823567ffffffffffffffff811115610b18575f5ffd5b8301601f81018513610b28575f5ffd5b803567ffffffffffffffff811115610b3e575f5ffd5b856020828401011115610b4f575f5ffd5b6020919091019590945092505050565b5f81518084525f5b81811015610b8357602081850181015186830182015201610b67565b505f602082860101526020601f19601f83011685010191505092915050565b8215158152604060208201525f610bbc6040830184610b5f565b949350505050565b80356001600160a01b0381168114610bda575f5ffd5b919050565b5f5f60408385031215610bf0575f5ffd5b610bf983610bc4565b946020939093013593505050565b5f60208284031215610c17575f5ffd5b5035919050565b5f60208284031215610c2e575f5ffd5b6109f982610bc4565b602080825282518282018190525f918401906040840190835b81811015610c775783516001600160a01b0316835260209384019390920191600101610c50565b509095945050505050565b6001600160a01b03868116825285811660208301528416604082015260ff8316606082015260a0608082018190525f90610cbe90830184610b5f565b979650505050505050565b5f60208284031215610cd9575f5ffd5b813567ffffffffffffffff811115610cef575f5ffd5b8201601f81018413610cff575f5ffd5b803567ffffffffffffffff811115610d1957610d19610a00565b8060051b610d2960208201610a14565b91825260208184018101929081019087841115610d44575f5ffd5b6020850194505b83851015610cbe57610d5c85610bc4565b825260209485019490910190610d4b565b634e487b7160e01b5f52603260045260245ffd5b5f60208284031215610d91575f5ffd5b815180151581146109f9575f5ffd5b5f60018201610dbd57634e487b7160e01b5f52601160045260245ffd5b506001019056fe60c060405234801561000f575f5ffd5b50604051611ada380380611ada83398101604081905261002e91610121565b826001600160a01b03811661005c57604051631e4fbdf760e01b81525f600482015260240160405180910390fd5b610065816100a3565b50600180556001600160a01b03858116608052841660a0526002805460ff191660ff8416179055600361009882826102b3565b50505050505061036d565b5f80546001600160a01b038381166001600160a01b0319831681178455604051919092169283917f8be0079c531659141344cd1fd0a4f28419497f9722a3daafe3b4186f6b6457e09190a35050565b80516001600160a01b0381168114610108575f5ffd5b919050565b634e487b7160e01b5f52604160045260245ffd5b5f5f5f5f5f60a08688031215610135575f5ffd5b61013e866100f2565b945061014c602087016100f2565b935061015a604087016100f2565b9250606086015160ff8116811461016f575f5ffd5b60808701519092506001600160401b0381111561018a575f5ffd5b8601601f8101881361019a575f5ffd5b80516001600160401b038111156101b3576101b361010d565b604051601f8201601f19908116603f011681016001600160401b03811182821017156101e1576101e161010d565b6040528181528282016020018a10156101f8575f5ffd5b5f5b82811015610216576020818501810151838301820152016101fa565b505f602083830101528093505050509295509295909350565b600181811c9082168061024357607f821691505b60208210810361026157634e487b7160e01b5f52602260045260245ffd5b50919050565b601f8211156102ae57805f5260205f20601f840160051c8101602085101561028c5750805b601f840160051c820191505b818110156102ab575f8155600101610298565b50505b505050565b81516001600160401b038111156102cc576102cc61010d565b6102e0816102da845461022f565b84610267565b6020601f821160018114610312575f83156102fb5750848201515b5f19600385901b1c1916600184901b1784556102ab565b5f84815260208120601f198516915b828110156103415787850151825560209485019460019092019101610321565b508482101561035e57868401515f19600387901b60f8161c191681555b50505050600190811b01905550565b60805160a0516117226103b85f395f8181610167015281816104b101528181610a5801528181610c0901528181610c98015261106801525f81816101e2015261131201526117225ff3fe608060405234801561000f575f5ffd5b5060043610610111575f3560e01c80638da5cb5b1161009e578063cba388d51161006e578063cba388d51461026a578063cf08fed514610272578063f2b9fdb814610291578063f2fde38b146102a4578063f3fef3a3146102b7575f5ffd5b80638da5cb5b1461022a578063c0cbbca61461023a578063c1bce0b71461024d578063ca9cb55214610260575f5ffd5b80634f1902ea116100e45780634f1902ea146101a1578063715018a6146101d357806371bfc189146101dd5780637aeedf2a146102045780638cd2e0c714610217575f5ffd5b806306fdde03146101155780630e3a6e6514610133578063334ff6321461014b578063481c6a7514610162575b5f5ffd5b61011d6102ca565b60405161012a9190611402565b60405180910390f35b61013b610356565b604051901515815260200161012a565b61015460045481565b60405190815260200161012a565b6101897f000000000000000000000000000000000000000000000000000000000000000081565b6040516001600160a01b03909116815260200161012a565b6101b46101af36600461141b565b610440565b604080516001600160a01b03909316835260208301919091520161012a565b6101db610476565b005b6101897f000000000000000000000000000000000000000000000000000000000000000081565b61015461021236600461145a565b610489565b610154610225366004611520565b6106d7565b5f546001600160a01b0316610189565b6101db61024836600461141b565b6108ab565b6101db61025b366004611520565b610a3d565b600454151561013b565b6101db610bfe565b60025461027f9060ff1681565b60405160ff909116815260200161012a565b6101db61029f366004611552565b610f52565b6101db6102b236600461157c565b61119b565b6101db6102c5366004611552565b6111d8565b600380546102d790611597565b80601f016020809104026020016040519081016040528092919081815260200182805461030390611597565b801561034e5780601f106103255761010080835404028352916020019161034e565b820191905f5260205f20905b81548152906001019060200180831161033157829003601f168201915b505050505081565b5f805b600554811015610439575f60058281548110610377576103776115cf565b5f9182526020822060029091020154600580546001600160a01b0390921693508391634e395e2a9190869081106103b0576103b06115cf565b905f5260205f209060020201600101546040518263ffffffff1660e01b81526004016103de91815260200190565b602060405180830381865afa1580156103f9573d5f5f3e3d5ffd5b505050506040513d601f19601f8201168201806040525081019061041d91906115e3565b9050801561042f576001935050505090565b5050600101610359565b505f905090565b6005818154811061044f575f80fd5b5f918252602090912060029091020180546001909101546001600160a01b03909116915082565b61047e611294565b6104875f6112c0565b565b5f610492611294565b604051631432585160e31b81526001600160a01b0384811660048301527f0000000000000000000000000000000000000000000000000000000000000000169063a192c28890602401602060405180830381865afa1580156104f6573d5f5f3e3d5ffd5b505050506040513d601f19601f8201168201806040525081019061051a91906115e3565b61056b5760405162461bcd60e51b815260206004820152601860248201527f5374726174656779206e6f742077686974656c6973746564000000000000000060448201526064015b60405180910390fd5b6040516323085b8560e11b81525f906001600160a01b03851690634610b70a90610599908690600401611402565b6020604051808303815f875af11580156105b5573d5f5f3e3d5ffd5b505050506040513d601f19601f820116820180604052508101906105d99190611602565b604080518082019091526001600160a01b03868116825260208201838152600580546001810182555f91825293517f036b6384b5eca791c62761152d0c79bb0604c104a5fb6f4eb0703f3154bb3db0600290950294850180546001600160a01b0319169190941617909255517f036b6384b5eca791c62761152d0c79bb0604c104a5fb6f4eb0703f3154bb3db190920191909155600480549293509061067e8361162d565b91905055507f88f76c426074fcdd1c162d79fa9963986dde5002807d81f10cc54e31473f4d918482856040516106b693929190611645565b60405180910390a160016004546106cd9190611674565b9150505b92915050565b6040516323b872dd60e01b8152336004820152306024820152604481018390525f906001600160a01b038516906323b872dd906064016020604051808303815f875af1158015610729573d5f5f3e3d5ffd5b505050506040513d601f19601f8201168201806040525081019061074d91906115e3565b50836001600160a01b031663095ea7b361076561130f565b6040516001600160e01b031960e084901b1681526001600160a01b039091166004820152602481018690526044016020604051808303815f875af11580156107af573d5f5f3e3d5ffd5b505050506040513d601f19601f820116820180604052508101906107d391906115e3565b505f6107dd61130f565b60405163573ade8160e01b81526001600160a01b0387811660048301526024820187905260448201869052306064830152919091169063573ade81906084016020604051808303815f875af1158015610838573d5f5f3e3d5ffd5b505050506040513d601f19601f8201168201806040525081019061085c9190611602565b60408051868152602081018690529192506001600160a01b038716917f77c6871227e5d2dec8dadd5354f78453203e22e669cd0ec4c19d9a8c5edb31d0910160405180910390a2949350505050565b6108b3611294565b60045481106108d8576040516302e9413560e11b815260048101829052602401610562565b5f600582815481106108ec576108ec6115cf565b5f9182526020822060029091020154600580546001600160a01b039092169350908490811061091d5761091d6115cf565b905f5260205f209060020201600101549050600560016005805490506109439190611674565b81548110610953576109536115cf565b905f5260205f20906002020160058481548110610972576109726115cf565b5f9182526020909120825460029092020180546001600160a01b0319166001600160a01b0390921691909117815560019182015491015560058054806109ba576109ba611687565b5f8281526020812060025f199093019283020180546001600160a01b0319168155600101819055915560048054916109f18361169b565b9091555050604080516001600160a01b0384168152602081018390527fbbf656fe5bdad4acb6ad855a12c9cb30a54f2171f421df7461c587557e916b3a910160405180910390a1505050565b610a4561130f565b6001600160a01b031663a415bcad8484847f00000000000000000000000000000000000000000000000000000000000000006001600160a01b0316630b189c626040518163ffffffff1660e01b8152600401602060405180830381865afa158015610ab2573d5f5f3e3d5ffd5b505050506040513d601f19601f82011682018060405250810190610ad691906116b0565b6040516001600160e01b031960e087901b1681526001600160a01b0390941660048501526024840192909252604483015261ffff16606482015230608482015260a4015f604051808303815f87803b158015610b30575f5ffd5b505af1158015610b42573d5f5f3e3d5ffd5b505060405163a9059cbb60e01b8152336004820152602481018590526001600160a01b038616925063a9059cbb91506044016020604051808303815f875af1158015610b90573d5f5f3e3d5ffd5b505050506040513d601f19601f82011682018060405250810190610bb491906115e3565b5060408051838152602081018390526001600160a01b038516917fe1979fe4c35e0cef342fef5668e2c8e7a7e9f5d5d1ca8fee0ac6c427fa4153af910160405180910390a2505050565b336001600160a01b037f00000000000000000000000000000000000000000000000000000000000000001614610c825760405162461bcd60e51b815260206004820152602360248201527f4f6e6c79206d616e616765722063616e2063616c6c20746869732066756e637460448201526234b7b760e91b6064820152608401610562565b610c8a611395565b5f5b600554811015610f48577f00000000000000000000000000000000000000000000000000000000000000006001600160a01b031663a192c28860058381548110610cd857610cd86115cf565b5f91825260209091206002909102015460405160e083901b6001600160e01b03191681526001600160a01b039091166004820152602401602060405180830381865afa158015610d2a573d5f5f3e3d5ffd5b505050506040513d601f19601f82011682018060405250810190610d4e91906115e3565b15610f40575f60058281548110610d6757610d676115cf565b5f9182526020822060029091020154600580546001600160a01b0390921693508391634e395e2a919086908110610da057610da06115cf565b905f5260205f209060020201600101546040518263ffffffff1660e01b8152600401610dce91815260200190565b602060405180830381865afa158015610de9573d5f5f3e3d5ffd5b505050506040513d601f19601f82011682018060405250810190610e0d91906115e3565b90508015610f3d57816001600160a01b031663fe0d94c160058581548110610e3757610e376115cf565b905f5260205f209060020201600101546040518263ffffffff1660e01b8152600401610e6591815260200190565b6020604051808303815f875af1158015610e81573d5f5f3e3d5ffd5b505050506040513d601f19601f82011682018060405250810190610ea591906115e3565b507fb811d939986ff732fa5e25c43b2791456c5d775210b54de1b1c6ddce94f0512960058481548110610eda57610eda6115cf565b5f918252602090912060029091020154600580546001600160a01b039092169186908110610f0a57610f0a6115cf565b5f91825260209182902060016002909202010154604080516001600160a01b039094168452918301520160405180910390a15b50505b600101610c8c565b5061048760018055565b6040516323b872dd60e01b8152336004820152306024820152604481018290526001600160a01b038316906323b872dd906064016020604051808303815f875af1158015610fa2573d5f5f3e3d5ffd5b505050506040513d601f19601f82011682018060405250810190610fc691906115e3565b50816001600160a01b031663095ea7b3610fde61130f565b6040516001600160e01b031960e084901b1681526001600160a01b039091166004820152602481018490526044016020604051808303815f875af1158015611028573d5f5f3e3d5ffd5b505050506040513d601f19601f8201168201806040525081019061104c91906115e3565b5061105561130f565b6001600160a01b031663617ba0378383307f00000000000000000000000000000000000000000000000000000000000000006001600160a01b0316630b189c626040518163ffffffff1660e01b8152600401602060405180830381865afa1580156110c2573d5f5f3e3d5ffd5b505050506040513d601f19601f820116820180604052508101906110e691906116b0565b6040516001600160e01b031960e087901b1681526001600160a01b03948516600482015260248101939093529216604482015261ffff90911660648201526084015f604051808303815f87803b15801561113e575f5ffd5b505af1158015611150573d5f5f3e3d5ffd5b50505050816001600160a01b03167fadacf827efe383160192c092d8658471945c074229a9746679b5e2b74adff1918260405161118f91815260200190565b60405180910390a25050565b6111a3611294565b6001600160a01b0381166111cc57604051631e4fbdf760e01b81525f6004820152602401610562565b6111d5816112c0565b50565b6111e061130f565b604051631a4ca37b60e21b81526001600160a01b0384811660048301526024820184905233604483015291909116906369328dec906064016020604051808303815f875af1158015611234573d5f5f3e3d5ffd5b505050506040513d601f19601f820116820180604052508101906112589190611602565b50816001600160a01b03167f884edad9ce6fa2440d8a54cc123490eb96d2768479d49ff9c7366125a94243648260405161118f91815260200190565b5f546001600160a01b031633146104875760405163118cdaa760e01b8152336004820152602401610562565b5f80546001600160a01b038381166001600160a01b0319831681178455604051919092169283917f8be0079c531659141344cd1fd0a4f28419497f9722a3daafe3b4186f6b6457e09190a35050565b5f7f00000000000000000000000000000000000000000000000000000000000000006001600160a01b031663026b1d5f6040518163ffffffff1660e01b8152600401602060405180830381865afa15801561136c573d5f5f3e3d5ffd5b505050506040513d601f19601f8201168201806040525081019061139091906116d1565b905090565b6002600154036113b857604051633ee5aeb560e01b815260040160405180910390fd5b6002600155565b5f81518084525f5b818110156113e3576020818501810151868301820152016113c7565b505f602082860101526020601f19601f83011685010191505092915050565b602081525f61141460208301846113bf565b9392505050565b5f6020828403121561142b575f5ffd5b5035919050565b6001600160a01b03811681146111d5575f5ffd5b634e487b7160e01b5f52604160045260245ffd5b5f5f6040838503121561146b575f5ffd5b823561147681611432565b9150602083013567ffffffffffffffff811115611491575f5ffd5b8301601f810185136114a1575f5ffd5b803567ffffffffffffffff8111156114bb576114bb611446565b604051601f8201601f19908116603f0116810167ffffffffffffffff811182821017156114ea576114ea611446565b604052818152828201602001871015611501575f5ffd5b816020840160208301375f602083830101528093505050509250929050565b5f5f5f60608486031215611532575f5ffd5b833561153d81611432565b95602085013595506040909401359392505050565b5f5f60408385031215611563575f5ffd5b823561156e81611432565b946020939093013593505050565b5f6020828403121561158c575f5ffd5b813561141481611432565b600181811c908216806115ab57607f821691505b6020821081036115c957634e487b7160e01b5f52602260045260245ffd5b50919050565b634e487b7160e01b5f52603260045260245ffd5b5f602082840312156115f3575f5ffd5b81518015158114611414575f5ffd5b5f60208284031215611612575f5ffd5b5051919050565b634e487b7160e01b5f52601160045260245ffd5b5f6001820161163e5761163e611619565b5060010190565b60018060a01b0384168152826020820152606060408201525f61166b60608301846113bf565b95945050505050565b818103818111156106d1576106d1611619565b634e487b7160e01b5f52603160045260245ffd5b5f816116a9576116a9611619565b505f190190565b5f602082840312156116c0575f5ffd5b815161ffff81168114611414575f5ffd5b5f602082840312156116e1575f5ffd5b81516114148161143256fea26469706673582212205ec46841fe6bea396ccb67408d63ad1d579881c5f27e6266f6806b28ca7a82c164736f6c634300081c0033a2646970667358221220786871fe2da932fa33f4be2abaa9a492a712f24cae146407b7e821f74d83734664736f6c634300081c0033","linkReferences":{}},"methodIdentifiers":{"POOL_ADDRESSES_PROVIDER_ADDRESS()":"71bfc189","aaveReferralCode()":"0b189c62","allVaults(uint256)":"9094a91e","checkUpkeep(bytes)":"6e04ff0d","createVault(uint8,string)":"31bdd1bd","getVaults(address)":"fe7c9c92","isWhitelistedStrategy(address)":"a192c288","owner()":"8da5cb5b","performUpkeep(bytes)":"4585e33b","renounceOwnership()":"715018a6","setAaveReferralCode(uint16)":"08e169d9","transferOwnership(address)":"f2fde38b","unwhitelistStrategy(address)":"92a88847","vaults(address,uint256)":"7bbfc69e","whitelistStrategy(address)":"ae774256"},"id":83}