{"abi":[{"type":"constructor","inputs":[],"stateMutability":"nonpayable"},{"type":"function","name":"createVault","inputs":[{"name":"color","type":"uint8","internalType":"uint8"},{"name":"name","type":"string","internalType":"string"}],"outputs":[],"stateMutability":"nonpayable"},{"type":"function","name":"getVaults","inputs":[{"name":"user","type":"address","internalType":"address"}],"outputs":[{"name":"","type":"address[]","internalType":"address[]"}],"stateMutability":"view"},{"type":"function","name":"vaults","inputs":[{"name":"user","type":"address","internalType":"address"},{"name":"","type":"uint256","internalType":"uint256"}],"outputs":[{"name":"vaults","type":"address","internalType":"address"}],"stateMutability":"view"},{"type":"event","name":"VaultCreated","inputs":[{"name":"vault","type":"address","indexed":false,"internalType":"address"},{"name":"user","type":"address","indexed":false,"internalType":"address"}],"anonymous":false}],"bytecode":{"object":"0x6080604052348015600e575f5ffd5b506115718061001c5f395ff3fe608060405234801561000f575f5ffd5b506004361061003f575f3560e01c806331bdd1bd146100435780637bbfc69e14610058578063fe7c9c9214610088575b5f5ffd5b61005661005136600461021f565b6100a8565b005b61006b610066366004610305565b61015a565b6040516001600160a01b0390911681526020015b60405180910390f35b61009b61009636600461032d565b61018d565b60405161007f919061034d565b5f3383836040516100b8906101fe565b6100c493929190610398565b604051809103905ff0801580156100dd573d5f5f3e3d5ffd5b50335f8181526020818152604080832080546001810182559084529282902090920180546001600160a01b0319166001600160a01b0386169081179091558251908152908101929092529192507f5d9c31ffa0fecffd7cf379989a3c7af252f0335e0d2a1320b55245912c781f53910160405180910390a1505050565b5f602052815f5260405f208181548110610172575f80fd5b5f918252602090912001546001600160a01b03169150829050565b6001600160a01b0381165f90815260208181526040918290208054835181840281018401909452808452606093928301828280156101f257602002820191905f5260205f20905b81546001600160a01b031681526001909101906020018083116101d4575b50505050509050919050565b61113f806103fd83390190565b634e487b7160e01b5f52604160045260245ffd5b5f5f60408385031215610230575f5ffd5b823560ff81168114610240575f5ffd5b9150602083013567ffffffffffffffff81111561025b575f5ffd5b8301601f8101851361026b575f5ffd5b803567ffffffffffffffff8111156102855761028561020b565b604051601f8201601f19908116603f0116810167ffffffffffffffff811182821017156102b4576102b461020b565b6040528181528282016020018710156102cb575f5ffd5b816020840160208301375f602083830101528093505050509250929050565b80356001600160a01b0381168114610300575f5ffd5b919050565b5f5f60408385031215610316575f5ffd5b61031f836102ea565b946020939093013593505050565b5f6020828403121561033d575f5ffd5b610346826102ea565b9392505050565b602080825282518282018190525f918401906040840190835b8181101561038d5783516001600160a01b0316835260209384019390920191600101610366565b509095945050505050565b60018060a01b038416815260ff83166020820152606060408201525f82518060608401525f5b818110156103db57602081860181015160808684010152016103be565b505f608082850101526080601f19601f83011684010191505094935050505056fe60c06040527348914c788295b5db23af2b5f0b3be775c4ea94406080525f60a05234801561002b575f5ffd5b5060405161113f38038061113f83398101604081905261004a91610111565b826001600160a01b03811661007857604051631e4fbdf760e01b81525f600482015260240160405180910390fd5b610081816100ae565b505f805460ff60a01b1916600160a01b60ff85160217905560016100a58282610290565b5050505061034a565b5f80546001600160a01b038381166001600160a01b0319831681178455604051919092169283917f8be0079c531659141344cd1fd0a4f28419497f9722a3daafe3b4186f6b6457e09190a35050565b634e487b7160e01b5f52604160045260245ffd5b5f5f5f60608486031215610123575f5ffd5b83516001600160a01b0381168114610139575f5ffd5b602085015190935060ff8116811461014f575f5ffd5b60408501519092506001600160401b0381111561016a575f5ffd5b8401601f8101861361017a575f5ffd5b80516001600160401b03811115610193576101936100fd565b604051601f8201601f19908116603f011681016001600160401b03811182821017156101c1576101c16100fd565b6040528181528282016020018810156101d8575f5ffd5b5f5b828110156101f6576020818501810151838301820152016101da565b505f602083830101528093505050509250925092565b600181811c9082168061022057607f821691505b60208210810361023e57634e487b7160e01b5f52602260045260245ffd5b50919050565b601f82111561028b57805f5260205f20601f840160051c810160208510156102695750805b601f840160051c820191505b81811015610288575f8155600101610275565b50505b505050565b81516001600160401b038111156102a9576102a96100fd565b6102bd816102b7845461020c565b84610244565b6020601f8211600181146102ef575f83156102d85750848201515b5f19600385901b1c1916600184901b178455610288565b5f84815260208120601f198516915b8281101561031e57878501518255602094850194600190920191016102fe565b508482101561033b57868401515f19600387901b60f8161c191681555b50505050600190811b01905550565b60805160a051610d9c6103a35f395f8181610120015281816104ac015261075c01525f818161015a01528181610408015281816104d9015281816105a2015281816106b301528181610783015261084c0152610d9c5ff3fe608060405234801561000f575f5ffd5b50600436106100e5575f3560e01c80638da5cb5b11610088578063d1946dbc11610063578063d1946dbc14610218578063f2b9fdb81461022d578063f2fde38b14610240578063f3fef3a314610253575f5ffd5b80638da5cb5b146101d0578063c1bce0b7146101e0578063cf08fed5146101f3575f5ffd5b80635466e24d116100c35780635466e24d14610155578063715018a614610194578063887a2f721461019c5780638cd2e0c7146101af575f5ffd5b806306fdde03146100e95780631c587352146101075780633583849a1461011b575b5f5ffd5b6100f1610266565b6040516100fe9190610958565b60405180910390f35b6101196101153660046109e3565b5050565b005b6101427f000000000000000000000000000000000000000000000000000000000000000081565b60405161ffff90911681526020016100fe565b61017c7f000000000000000000000000000000000000000000000000000000000000000081565b6040516001600160a01b0390911681526020016100fe565b6101196102f2565b6101196101aa366004610a8a565b610305565b6101c26101bd366004610aa1565b6103d3565b6040519081526020016100fe565b5f546001600160a01b031661017c565b6101196101ee366004610aa1565b61047c565b5f5461020690600160a01b900460ff1681565b60405160ff90911681526020016100fe565b61022061059e565b6040516100fe9190610ad3565b61011961023b366004610b1e565b610627565b61011961024e366004610b48565b6107de565b610119610261366004610b1e565b610820565b6001805461027390610b6a565b80601f016020809104026020016040519081016040528092919081815260200182805461029f90610b6a565b80156102ea5780601f106102c1576101008083540402835291602001916102ea565b820191905f5260205f20905b8154815290600101906020018083116102cd57829003601f168201915b505050505081565b6102fa6108bb565b6103035f6108e7565b565b6003818154811061031857610318610ba2565b5f91825260209091200154600280546001600160a01b03909216918390811061034357610343610ba2565b905f5260205f200160405160240161035b9190610bb6565b60408051601f198184030181529181526020820180516001600160e01b03166304e2f55f60e11b179052516103909190610c61565b5f60405180830381855af49150503d805f81146103c8576040519150601f19603f3d011682016040523d82523d5f602084013e6103cd565b606091505b50505050565b60405163573ade8160e01b81526001600160a01b03848116600483015260248201849052604482018390523060648301525f917f00000000000000000000000000000000000000000000000000000000000000009091169063573ade81906084016020604051808303815f875af1158015610450573d5f5f3e3d5ffd5b505050506040513d601f19601f820116820180604052508101906104749190610c7c565b949350505050565b60405163a415bcad60e01b81526001600160a01b038481166004830152602482018490526044820183905261ffff7f00000000000000000000000000000000000000000000000000000000000000001660648301523060848301527f0000000000000000000000000000000000000000000000000000000000000000169063a415bcad9060a4015f604051808303815f87803b15801561051a575f5ffd5b505af115801561052c573d5f5f3e3d5ffd5b505060405163a9059cbb60e01b8152336004820152602481018590526001600160a01b038616925063a9059cbb91506044016020604051808303815f875af115801561057a573d5f5f3e3d5ffd5b505050506040513d601f19601f820116820180604052508101906103cd9190610c93565b60607f00000000000000000000000000000000000000000000000000000000000000006001600160a01b031663d1946dbc6040518163ffffffff1660e01b81526004015f60405180830381865afa1580156105fb573d5f5f3e3d5ffd5b505050506040513d5f823e601f3d908101601f191682016040526106229190810190610cb2565b905090565b6040516323b872dd60e01b8152336004820152306024820152604481018290526001600160a01b038316906323b872dd906064016020604051808303815f875af1158015610677573d5f5f3e3d5ffd5b505050506040513d601f19601f8201168201806040525081019061069b9190610c93565b5060405163095ea7b360e01b81526001600160a01b037f0000000000000000000000000000000000000000000000000000000000000000811660048301526024820183905283169063095ea7b3906044016020604051808303815f875af1158015610708573d5f5f3e3d5ffd5b505050506040513d601f19601f8201168201806040525081019061072c9190610c93565b5060405163617ba03760e01b81526001600160a01b0383811660048301526024820183905230604483015261ffff7f00000000000000000000000000000000000000000000000000000000000000001660648301527f0000000000000000000000000000000000000000000000000000000000000000169063617ba037906084015f604051808303815f87803b1580156107c4575f5ffd5b505af11580156107d6573d5f5f3e3d5ffd5b505050505050565b6107e66108bb565b6001600160a01b03811661081457604051631e4fbdf760e01b81525f60048201526024015b60405180910390fd5b61081d816108e7565b50565b604051631a4ca37b60e21b81526001600160a01b038381166004830152602482018390523360448301527f000000000000000000000000000000000000000000000000000000000000000016906369328dec906064016020604051808303815f875af1158015610892573d5f5f3e3d5ffd5b505050506040513d601f19601f820116820180604052508101906108b69190610c7c565b505050565b5f546001600160a01b031633146103035760405163118cdaa760e01b815233600482015260240161080b565b5f80546001600160a01b038381166001600160a01b0319831681178455604051919092169283917f8be0079c531659141344cd1fd0a4f28419497f9722a3daafe3b4186f6b6457e09190a35050565b5f5b83811015610950578181015183820152602001610938565b50505f910152565b602081525f8251806020840152610976816040850160208701610936565b601f01601f19169190910160400192915050565b6001600160a01b038116811461081d575f5ffd5b634e487b7160e01b5f52604160045260245ffd5b604051601f8201601f1916810167ffffffffffffffff811182821017156109db576109db61099e565b604052919050565b5f5f604083850312156109f4575f5ffd5b82356109ff8161098a565b9150602083013567ffffffffffffffff811115610a1a575f5ffd5b8301601f81018513610a2a575f5ffd5b803567ffffffffffffffff811115610a4457610a4461099e565b610a57601f8201601f19166020016109b2565b818152866020838501011115610a6b575f5ffd5b816020840160208301375f602083830101528093505050509250929050565b5f60208284031215610a9a575f5ffd5b5035919050565b5f5f5f60608486031215610ab3575f5ffd5b8335610abe8161098a565b95602085013595506040909401359392505050565b602080825282518282018190525f918401906040840190835b81811015610b135783516001600160a01b0316835260209384019390920191600101610aec565b509095945050505050565b5f5f60408385031215610b2f575f5ffd5b8235610b3a8161098a565b946020939093013593505050565b5f60208284031215610b58575f5ffd5b8135610b638161098a565b9392505050565b600181811c90821680610b7e57607f821691505b602082108103610b9c57634e487b7160e01b5f52602260045260245ffd5b50919050565b634e487b7160e01b5f52603260045260245ffd5b602081525f5f83545f8160011c90506001821680610bd557607f821691505b602082108103610bf357634e487b7160e01b5f52602260045260245ffd5b6020860182905260408601818015610c125760018114610c2857610c54565b60ff198516825283151560051b82019550610c54565b5f898152602090205f5b85811015610c4e57815484820152600190910190602001610c32565b83019650505b5093979650505050505050565b5f8251610c72818460208701610936565b9190910192915050565b5f60208284031215610c8c575f5ffd5b5051919050565b5f60208284031215610ca3575f5ffd5b81518015158114610b63575f5ffd5b5f60208284031215610cc2575f5ffd5b815167ffffffffffffffff811115610cd8575f5ffd5b8201601f81018413610ce8575f5ffd5b805167ffffffffffffffff811115610d0257610d0261099e565b8060051b610d12602082016109b2565b91825260208184018101929081019087841115610d2d575f5ffd5b6020850194505b83851015610d5b5784519250610d498361098a565b82825260209485019490910190610d34565b97965050505050505056fea2646970667358221220b228eaac7506a50b3dedd16af81487439c4b2d9a1b57116699aff23f1d62140064736f6c634300081c0033a264697066735822122038a094a646b2d24e5467a4c2a117a13ee7601c3a4af4af6bc2d4881315af3a8d64736f6c634300081c0033","linkReferences":{}},"methodIdentifiers":{"createVault(uint8,string)":"31bdd1bd","getVaults(address)":"fe7c9c92","vaults(address,uint256)":"7bbfc69e"},"id":74}