{"abi":[{"type":"constructor","inputs":[{"name":"_aave_pool","type":"address","internalType":"address"}],"stateMutability":"nonpayable"},{"type":"function","name":"AAVE_POOL_ADDRESS","inputs":[],"outputs":[{"name":"","type":"address","internalType":"address"}],"stateMutability":"view"},{"type":"function","name":"createVault","inputs":[{"name":"color","type":"uint8","internalType":"uint8"},{"name":"name","type":"string","internalType":"string"}],"outputs":[],"stateMutability":"nonpayable"},{"type":"function","name":"getVaults","inputs":[{"name":"user","type":"address","internalType":"address"}],"outputs":[{"name":"","type":"address[]","internalType":"address[]"}],"stateMutability":"view"},{"type":"function","name":"vaults","inputs":[{"name":"user","type":"address","internalType":"address"},{"name":"","type":"uint256","internalType":"uint256"}],"outputs":[{"name":"vaults","type":"address","internalType":"address"}],"stateMutability":"view"},{"type":"event","name":"VaultCreated","inputs":[{"name":"vault","type":"address","indexed":false,"internalType":"address"},{"name":"user","type":"address","indexed":false,"internalType":"address"}],"anonymous":false}],"bytecode":{"object":"0x60a0604052348015600e575f5ffd5b50604051611600380380611600833981016040819052602b91603b565b6001600160a01b03166080526066565b5f60208284031215604a575f5ffd5b81516001600160a01b0381168114605f575f5ffd5b9392505050565b60805161157d6100835f395f81816068015260dd015261157d5ff3fe608060405234801561000f575f5ffd5b506004361061004a575f3560e01c806331bdd1bd1461004e5780635466e24d146100635780637bbfc69e146100a7578063fe7c9c92146100ba575b5f5ffd5b61006161005c366004610273565b6100da565b005b61008a7f000000000000000000000000000000000000000000000000000000000000000081565b6040516001600160a01b0390911681526020015b60405180910390f35b61008a6100b5366004610359565b6101ae565b6100cd6100c8366004610381565b6101e1565b60405161009e91906103a1565b5f7f000000000000000000000000000000000000000000000000000000000000000033848460405161010b90610252565b61011894939291906103ec565b604051809103905ff080158015610131573d5f5f3e3d5ffd5b50335f8181526020818152604080832080546001810182559084529282902090920180546001600160a01b0319166001600160a01b0386169081179091558251908152908101929092529192507f5d9c31ffa0fecffd7cf379989a3c7af252f0335e0d2a1320b55245912c781f53910160405180910390a1505050565b5f602052815f5260405f2081815481106101c6575f80fd5b5f918252602090912001546001600160a01b03169150829050565b6001600160a01b0381165f908152602081815260409182902080548351818402810184019094528084526060939283018282801561024657602002820191905f5260205f20905b81546001600160a01b03168152600190910190602001808311610228575b50505050509050919050565b6110ea8061045e83390190565b634e487b7160e01b5f52604160045260245ffd5b5f5f60408385031215610284575f5ffd5b823560ff81168114610294575f5ffd5b9150602083013567ffffffffffffffff8111156102af575f5ffd5b8301601f810185136102bf575f5ffd5b803567ffffffffffffffff8111156102d9576102d961025f565b604051601f8201601f19908116603f0116810167ffffffffffffffff811182821017156103085761030861025f565b60405281815282820160200187101561031f575f5ffd5b816020840160208301375f602083830101528093505050509250929050565b80356001600160a01b0381168114610354575f5ffd5b919050565b5f5f6040838503121561036a575f5ffd5b6103738361033e565b946020939093013593505050565b5f60208284031215610391575f5ffd5b61039a8261033e565b9392505050565b602080825282518282018190525f918401906040840190835b818110156103e15783516001600160a01b03168352602093840193909201916001016103ba565b509095945050505050565b6001600160a01b0385811682528416602082015260ff8316604082015260806060820181905282519082018190525f90815b8181101561043b57602081860181015160a086840101520161041e565b505f60a0828501015260a0601f19601f8301168401019150509594505050505056fe60c06040525f60a052348015610013575f5ffd5b506040516110ea3803806110ea83398101604081905261003291610122565b826001600160a01b03811661006057604051631e4fbdf760e01b81525f600482015260240160405180910390fd5b610069816100a4565b506001600160a01b0384166080525f805460ff60a01b1916600160a01b60ff851602179055600161009a82826102a4565b505050505061035e565b5f80546001600160a01b038381166001600160a01b0319831681178455604051919092169283917f8be0079c531659141344cd1fd0a4f28419497f9722a3daafe3b4186f6b6457e09190a35050565b80516001600160a01b0381168114610109575f5ffd5b919050565b634e487b7160e01b5f52604160045260245ffd5b5f5f5f5f60808587031215610135575f5ffd5b61013e856100f3565b935061014c602086016100f3565b9250604085015160ff81168114610161575f5ffd5b60608601519092506001600160401b0381111561017c575f5ffd5b8501601f8101871361018c575f5ffd5b80516001600160401b038111156101a5576101a561010e565b604051601f8201601f19908116603f011681016001600160401b03811182821017156101d3576101d361010e565b6040528181528282016020018910156101ea575f5ffd5b5f5b82811015610208576020818501810151838301820152016101ec565b505f6020838301015280935050505092959194509250565b600181811c9082168061023457607f821691505b60208210810361025257634e487b7160e01b5f52602260045260245ffd5b50919050565b601f82111561029f57805f5260205f20601f840160051c8101602085101561027d5750805b601f840160051c820191505b8181101561029c575f8155600101610289565b50505b505050565b81516001600160401b038111156102bd576102bd61010e565b6102d1816102cb8454610220565b84610258565b6020601f821160018114610303575f83156102ec5750848201515b5f19600385901b1c1916600184901b17845561029c565b5f84815260208120601f198516915b828110156103325787850151825560209485019460019092019101610312565b508482101561034f57868401515f19600387901b60f8161c191681555b50505050600190811b01905550565b60805160a051610d336103b75f395f8181610120015281816104ac01526106f301525f818161015a01528181610408015281816104d9015281816105390152818161064a0152818161071a01526107e30152610d335ff3fe608060405234801561000f575f5ffd5b50600436106100e5575f3560e01c80638da5cb5b11610088578063d1946dbc11610063578063d1946dbc14610218578063f2b9fdb81461022d578063f2fde38b14610240578063f3fef3a314610253575f5ffd5b80638da5cb5b146101d0578063c1bce0b7146101e0578063cf08fed5146101f3575f5ffd5b80635466e24d116100c35780635466e24d14610155578063715018a614610194578063887a2f721461019c5780638cd2e0c7146101af575f5ffd5b806306fdde03146100e95780631c587352146101075780633583849a1461011b575b5f5ffd5b6100f1610266565b6040516100fe91906108ef565b60405180910390f35b61011961011536600461097a565b5050565b005b6101427f000000000000000000000000000000000000000000000000000000000000000081565b60405161ffff90911681526020016100fe565b61017c7f000000000000000000000000000000000000000000000000000000000000000081565b6040516001600160a01b0390911681526020016100fe565b6101196102f2565b6101196101aa366004610a21565b610305565b6101c26101bd366004610a38565b6103d3565b6040519081526020016100fe565b5f546001600160a01b031661017c565b6101196101ee366004610a38565b61047c565b5f5461020690600160a01b900460ff1681565b60405160ff90911681526020016100fe565b610220610535565b6040516100fe9190610a6a565b61011961023b366004610ab5565b6105be565b61011961024e366004610adf565b610775565b610119610261366004610ab5565b6107b7565b6001805461027390610b01565b80601f016020809104026020016040519081016040528092919081815260200182805461029f90610b01565b80156102ea5780601f106102c1576101008083540402835291602001916102ea565b820191905f5260205f20905b8154815290600101906020018083116102cd57829003601f168201915b505050505081565b6102fa610852565b6103035f61087e565b565b6003818154811061031857610318610b39565b5f91825260209091200154600280546001600160a01b03909216918390811061034357610343610b39565b905f5260205f200160405160240161035b9190610b4d565b60408051601f198184030181529181526020820180516001600160e01b03166304e2f55f60e11b179052516103909190610bf8565b5f60405180830381855af49150503d805f81146103c8576040519150601f19603f3d011682016040523d82523d5f602084013e6103cd565b606091505b50505050565b60405163573ade8160e01b81526001600160a01b03848116600483015260248201849052604482018390523060648301525f917f00000000000000000000000000000000000000000000000000000000000000009091169063573ade81906084016020604051808303815f875af1158015610450573d5f5f3e3d5ffd5b505050506040513d601f19601f820116820180604052508101906104749190610c13565b949350505050565b60405163a415bcad60e01b81526001600160a01b038481166004830152602482018490526044820183905261ffff7f00000000000000000000000000000000000000000000000000000000000000001660648301523060848301527f0000000000000000000000000000000000000000000000000000000000000000169063a415bcad9060a4015f604051808303815f87803b15801561051a575f5ffd5b505af115801561052c573d5f5f3e3d5ffd5b50505050505050565b60607f00000000000000000000000000000000000000000000000000000000000000006001600160a01b031663d1946dbc6040518163ffffffff1660e01b81526004015f60405180830381865afa158015610592573d5f5f3e3d5ffd5b505050506040513d5f823e601f3d908101601f191682016040526105b99190810190610c2a565b905090565b6040516323b872dd60e01b8152336004820152306024820152604481018290526001600160a01b038316906323b872dd906064016020604051808303815f875af115801561060e573d5f5f3e3d5ffd5b505050506040513d601f19601f820116820180604052508101906106329190610cde565b5060405163095ea7b360e01b81526001600160a01b037f0000000000000000000000000000000000000000000000000000000000000000811660048301526024820183905283169063095ea7b3906044016020604051808303815f875af115801561069f573d5f5f3e3d5ffd5b505050506040513d601f19601f820116820180604052508101906106c39190610cde565b5060405163617ba03760e01b81526001600160a01b0383811660048301526024820183905230604483015261ffff7f00000000000000000000000000000000000000000000000000000000000000001660648301527f0000000000000000000000000000000000000000000000000000000000000000169063617ba037906084015f604051808303815f87803b15801561075b575f5ffd5b505af115801561076d573d5f5f3e3d5ffd5b505050505050565b61077d610852565b6001600160a01b0381166107ab57604051631e4fbdf760e01b81525f60048201526024015b60405180910390fd5b6107b48161087e565b50565b604051631a4ca37b60e21b81526001600160a01b038381166004830152602482018390523360448301527f000000000000000000000000000000000000000000000000000000000000000016906369328dec906064016020604051808303815f875af1158015610829573d5f5f3e3d5ffd5b505050506040513d601f19601f8201168201806040525081019061084d9190610c13565b505050565b5f546001600160a01b031633146103035760405163118cdaa760e01b81523360048201526024016107a2565b5f80546001600160a01b038381166001600160a01b0319831681178455604051919092169283917f8be0079c531659141344cd1fd0a4f28419497f9722a3daafe3b4186f6b6457e09190a35050565b5f5b838110156108e75781810151838201526020016108cf565b50505f910152565b602081525f825180602084015261090d8160408501602087016108cd565b601f01601f19169190910160400192915050565b6001600160a01b03811681146107b4575f5ffd5b634e487b7160e01b5f52604160045260245ffd5b604051601f8201601f1916810167ffffffffffffffff8111828210171561097257610972610935565b604052919050565b5f5f6040838503121561098b575f5ffd5b823561099681610921565b9150602083013567ffffffffffffffff8111156109b1575f5ffd5b8301601f810185136109c1575f5ffd5b803567ffffffffffffffff8111156109db576109db610935565b6109ee601f8201601f1916602001610949565b818152866020838501011115610a02575f5ffd5b816020840160208301375f602083830101528093505050509250929050565b5f60208284031215610a31575f5ffd5b5035919050565b5f5f5f60608486031215610a4a575f5ffd5b8335610a5581610921565b95602085013595506040909401359392505050565b602080825282518282018190525f918401906040840190835b81811015610aaa5783516001600160a01b0316835260209384019390920191600101610a83565b509095945050505050565b5f5f60408385031215610ac6575f5ffd5b8235610ad181610921565b946020939093013593505050565b5f60208284031215610aef575f5ffd5b8135610afa81610921565b9392505050565b600181811c90821680610b1557607f821691505b602082108103610b3357634e487b7160e01b5f52602260045260245ffd5b50919050565b634e487b7160e01b5f52603260045260245ffd5b602081525f5f83545f8160011c90506001821680610b6c57607f821691505b602082108103610b8a57634e487b7160e01b5f52602260045260245ffd5b6020860182905260408601818015610ba95760018114610bbf57610beb565b60ff198516825283151560051b82019550610beb565b5f898152602090205f5b85811015610be557815484820152600190910190602001610bc9565b83019650505b5093979650505050505050565b5f8251610c098184602087016108cd565b9190910192915050565b5f60208284031215610c23575f5ffd5b5051919050565b5f60208284031215610c3a575f5ffd5b815167ffffffffffffffff811115610c50575f5ffd5b8201601f81018413610c60575f5ffd5b805167ffffffffffffffff811115610c7a57610c7a610935565b8060051b610c8a60208201610949565b91825260208184018101929081019087841115610ca5575f5ffd5b6020850194505b83851015610cd35784519250610cc183610921565b82825260209485019490910190610cac565b979650505050505050565b5f60208284031215610cee575f5ffd5b81518015158114610afa575f5ffdfea264697066735822122030024067b6652cf999d73232e9fdb99139ba411787c89637ced88aba48d2a47b64736f6c634300081c0033a2646970667358221220c393a356affa13584434252be85f53597c01b71bb5fbdef112a2c11dafec98f064736f6c634300081c0033","linkReferences":{}},"methodIdentifiers":{"AAVE_POOL_ADDRESS()":"5466e24d","createVault(uint8,string)":"31bdd1bd","getVaults(address)":"fe7c9c92","vaults(address,uint256)":"7bbfc69e"},"id":72}