{
    "abi": [
        {
            "type": "constructor",
            "inputs": [
                {
                    "name": "_swapRouterAddress",
                    "type": "address",
                    "internalType": "address"
                }
            ],
            "stateMutability": "nonpayable"
        },
        {
            "type": "function",
            "name": "activated",
            "inputs": [
                {
                    "name": "",
                    "type": "uint256",
                    "internalType": "uint256"
                }
            ],
            "outputs": [
                {
                    "name": "",
                    "type": "bool",
                    "internalType": "bool"
                }
            ],
            "stateMutability": "view"
        },
        {
            "type": "function",
            "name": "execute",
            "inputs": [
                {
                    "name": "_subscriptionId",
                    "type": "uint256",
                    "internalType": "uint256"
                }
            ],
            "outputs": [
                {
                    "name": "",
                    "type": "bool",
                    "internalType": "bool"
                }
            ],
            "stateMutability": "nonpayable"
        },
        {
            "type": "function",
            "name": "isExecutable",
            "inputs": [
                {
                    "name": "_subscriptionId",
                    "type": "uint256",
                    "internalType": "uint256"
                }
            ],
            "outputs": [
                {
                    "name": "",
                    "type": "bool",
                    "internalType": "bool"
                }
            ],
            "stateMutability": "view"
        },
        {
            "type": "function",
            "name": "lastExecution",
            "inputs": [
                {
                    "name": "",
                    "type": "uint256",
                    "internalType": "uint256"
                }
            ],
            "outputs": [
                {
                    "name": "timestamps",
                    "type": "uint256",
                    "internalType": "uint256"
                }
            ],
            "stateMutability": "view"
        },
        {
            "type": "function",
            "name": "owner",
            "inputs": [
                {
                    "name": "subscriptionId",
                    "type": "uint256",
                    "internalType": "uint256"
                }
            ],
            "outputs": [
                {
                    "name": "vaultAddress",
                    "type": "address",
                    "internalType": "address"
                }
            ],
            "stateMutability": "view"
        },
        {
            "type": "function",
            "name": "params",
            "inputs": [
                {
                    "name": "",
                    "type": "uint256",
                    "internalType": "uint256"
                }
            ],
            "outputs": [
                {
                    "name": "vaultAddress",
                    "type": "address",
                    "internalType": "address"
                },
                {
                    "name": "yieldAsset",
                    "type": "address",
                    "internalType": "address"
                },
                {
                    "name": "targetAsset",
                    "type": "address",
                    "internalType": "address"
                },
                {
                    "name": "to",
                    "type": "address",
                    "internalType": "address"
                },
                {
                    "name": "minSupplyThreshold",
                    "type": "uint256",
                    "internalType": "uint256"
                },
                {
                    "name": "percentAllocation",
                    "type": "uint256",
                    "internalType": "uint256"
                },
                {
                    "name": "executionAfter",
                    "type": "uint256",
                    "internalType": "uint256"
                }
            ],
            "stateMutability": "view"
        },
        {
            "type": "function",
            "name": "poolFee",
            "inputs": [],
            "outputs": [
                {
                    "name": "",
                    "type": "uint24",
                    "internalType": "uint24"
                }
            ],
            "stateMutability": "view"
        },
        {
            "type": "function",
            "name": "subscribe",
            "inputs": [
                {
                    "name": "_params",
                    "type": "bytes",
                    "internalType": "bytes"
                }
            ],
            "outputs": [
                {
                    "name": "",
                    "type": "uint256",
                    "internalType": "uint256"
                }
            ],
            "stateMutability": "nonpayable"
        },
        {
            "type": "function",
            "name": "subscriptionId",
            "inputs": [],
            "outputs": [
                {
                    "name": "",
                    "type": "uint256",
                    "internalType": "uint256"
                }
            ],
            "stateMutability": "view"
        },
        {
            "type": "function",
            "name": "swapRouter",
            "inputs": [],
            "outputs": [
                {
                    "name": "",
                    "type": "address",
                    "internalType": "contract ISwapRouter"
                }
            ],
            "stateMutability": "view"
        },
        {
            "type": "function",
            "name": "unsubscribe",
            "inputs": [
                {
                    "name": "_subscriptionId",
                    "type": "uint256",
                    "internalType": "uint256"
                }
            ],
            "outputs": [],
            "stateMutability": "nonpayable"
        },
        {
            "type": "event",
            "name": "StrategyExecuted",
            "inputs": [
                {
                    "name": "subscriptionId",
                    "type": "uint256",
                    "indexed": false,
                    "internalType": "uint256"
                }
            ],
            "anonymous": false
        },
        {
            "type": "event",
            "name": "StrategySubscribed",
            "inputs": [
                {
                    "name": "subscriptionId",
                    "type": "uint256",
                    "indexed": false,
                    "internalType": "uint256"
                },
                {
                    "name": "vault",
                    "type": "address",
                    "indexed": false,
                    "internalType": "address"
                },
                {
                    "name": "params",
                    "type": "bytes",
                    "indexed": false,
                    "internalType": "bytes"
                }
            ],
            "anonymous": false
        },
        {
            "type": "event",
            "name": "StrategyUnubscribed",
            "inputs": [
                {
                    "name": "subscriptionId",
                    "type": "uint256",
                    "indexed": false,
                    "internalType": "uint256"
                }
            ],
            "anonymous": false
        },
        {
            "type": "error",
            "name": "InvalidPercentAllocationError",
            "inputs": []
        },
        {
            "type": "error",
            "name": "InvalidToAddressError",
            "inputs": []
        }
    ],
    "bytecode": {
        "object": "0x60a0604052348015600e575f5ffd5b50604051610e7a380380610e7a833981016040819052602b91603b565b6001600160a01b03166080526066565b5f60208284031215604a575f5ffd5b81516001600160a01b0381168114605f575f5ffd5b9392505050565b608051610dee61008c5f395f8181610256015281816106a401526107440152610dee5ff3fe608060405234801561000f575f5ffd5b50600436106100a6575f3560e01c80634e395e2a1161006e5780634e395e2a146101465780639d2f053c14610159578063a123c33e146101fc578063ad0b27fb1461023c578063c31c9c0714610251578063fe0d94c114610278575f5ffd5b8063089fe6aa146100aa57806309c1ba2e146100cc57806332fad9d8146100e257806333f9d1d3146101145780634610b70a14610133575b5f5ffd5b6100b3610bb881565b60405162ffffff90911681526020015b60405180910390f35b6100d45f5481565b6040519081526020016100c3565b6101046100f0366004610aa9565b60046020525f908152604090205460ff1681565b60405190151581526020016100c3565b6100d4610122366004610aa9565b60036020525f908152604090205481565b6100d4610141366004610b05565b61028b565b610104610154366004610aa9565b6103e9565b6101b3610167366004610aa9565b600260208190525f918252604090912080546001820154928201546003830154600484015460058501546006909501546001600160a01b03948516968516959385169490921692909187565b604080516001600160a01b039889168152968816602088015294871694860194909452949091166060840152608083015260a082019290925260c081019190915260e0016100c3565b61022461020a366004610aa9565b60016020525f90815260409020546001600160a01b031681565b6040516001600160a01b0390911681526020016100c3565b61024f61024a366004610aa9565b6103f9565b005b6102247f000000000000000000000000000000000000000000000000000000000000000081565b610104610286366004610aa9565b6104ac565b5f5f828060200190518101906102a19190610bb4565b90508060a001515f14806102bb5750620f42408160a00151115b156102d9576040516359319bd760e11b815260040160405180910390fd5b60608101516001600160a01b03166103045760405163bc76bf9760e01b815260040160405180910390fd5b5f805481526001602081815260408084208054336001600160a01b0319918216179091558454855260028084528286208751815484166001600160a01b0391821617825588860151828801805486169183169190911790558885015192820180548516938216939093179092556060880151600382018054909416921691909117909155608086015160048083019190915560a0870151600583015560c0870151600690920191909155845485529091528220805460ff19169091179055805490806103cf83610c65565b919050555060015f546103e29190610c7d565b9392505050565b5f6103f382610803565b92915050565b5f818152600460208181526040808420805460ff1916905583548452600180835281852080546001600160a01b031990811690915586865260028085528387208054831681559283018054831690558201805482169055600380830180549092169091559381018590556005810185905560060184905591815281832092909255518281527f36b82c3fb7922259cc5b808280b84028fa7a7eed4d217ba9355c6f0b74cb8f0e910160405180910390a150565b5f80548152600160205260408120546001600160a01b031633146105055760405162461bcd60e51b815260206004820152600b60248201526a139bdd08185b1b1bddd95960aa1b60448201526064015b60405180910390fd5b61050e82610803565b61054b5760405162461bcd60e51b815260206004820152600e60248201526d4e6f742065786563757461626c6560901b60448201526064016104fc565b5f828152600260205260409020600601546105669042610c90565b5f83815260036020908152604080832093909355600290528181206001810154905492516370a0823160e01b81526001600160a01b039384166004820152919216906370a0823190602401602060405180830381865afa1580156105cc573d5f5f3e3d5ffd5b505050506040513d601f19601f820116820180604052508101906105f09190610ca3565b5f84815260026020526040902060040154909150811161061257505f92915050565b5f8381526002602052604081206004015461062d9083610c7d565b5f8581526002602052604081206005015491925090620f4240906106519084610cba565b61065b9190610cd1565b5f86815260026020526040902060010154909150610684906001600160a01b03163330846108a9565b5f858152600260205260409020600101546106c9906001600160a01b03167f0000000000000000000000000000000000000000000000000000000000000000836109ae565b60408051610100810182525f8781526002602081815284832060018101546001600160a01b03908116865281840154811683870152610bb8868801528b855292909152600301548116606084015242608084015260a0830185905260c0830182905260e08301829052925163414bf38960e01b8152919290917f00000000000000000000000000000000000000000000000000000000000000009091169063414bf3899061077b908590600401610cf0565b6020604051808303815f875af1158015610797573d5f5f3e3d5ffd5b505050506040513d601f19601f820116820180604052508101906107bb9190610ca3565b90507f0c61996d0e102905c02e7d181cec9e73f0ba00f7b4f6164a9908275c566479e2876040516107ee91815260200190565b60405180910390a15060019695505050505050565b5f8181526003602052604081205442108015906103f357505f82815260026020526040908190206004808201546001830154925493516370a0823160e01b81526001600160a01b039485169281019290925292909116906370a0823190602401602060405180830381865afa15801561087e573d5f5f3e3d5ffd5b505050506040513d601f19601f820116820180604052508101906108a29190610ca3565b1192915050565b604080516001600160a01b0385811660248301528481166044830152606480830185905283518084039091018152608490920183526020820180516001600160e01b03166323b872dd60e01b17905291515f9283929088169161090c9190610d6d565b5f604051808303815f865af19150503d805f8114610945576040519150601f19603f3d011682016040523d82523d5f602084013e61094a565b606091505b50915091508180156109745750805115806109745750808060200190518101906109749190610d99565b6109a65760405162461bcd60e51b815260206004820152600360248201526229aa2360e91b60448201526064016104fc565b505050505050565b604080516001600160a01b038481166024830152604480830185905283518084039091018152606490920183526020820180516001600160e01b031663095ea7b360e01b17905291515f92839290871691610a099190610d6d565b5f604051808303815f865af19150503d805f8114610a42576040519150601f19603f3d011682016040523d82523d5f602084013e610a47565b606091505b5091509150818015610a71575080511580610a71575080806020019051810190610a719190610d99565b610aa25760405162461bcd60e51b8152602060048201526002602482015261534160f01b60448201526064016104fc565b5050505050565b5f60208284031215610ab9575f5ffd5b5035919050565b634e487b7160e01b5f52604160045260245ffd5b604051601f8201601f1916810167ffffffffffffffff81118282101715610afd57610afd610ac0565b604052919050565b5f60208284031215610b15575f5ffd5b813567ffffffffffffffff811115610b2b575f5ffd5b8201601f81018413610b3b575f5ffd5b803567ffffffffffffffff811115610b5557610b55610ac0565b610b68601f8201601f1916602001610ad4565b818152856020838501011115610b7c575f5ffd5b816020840160208301375f91810160200191909152949350505050565b80516001600160a01b0381168114610baf575f5ffd5b919050565b5f60e0828403128015610bc5575f5ffd5b5060405160e0810167ffffffffffffffff81118282101715610be957610be9610ac0565b604052610bf583610b99565b8152610c0360208401610b99565b6020820152610c1460408401610b99565b6040820152610c2560608401610b99565b60608201526080838101519082015260a0808401519082015260c0928301519281019290925250919050565b634e487b7160e01b5f52601160045260245ffd5b5f60018201610c7657610c76610c51565b5060010190565b818103818111156103f3576103f3610c51565b808201808211156103f3576103f3610c51565b5f60208284031215610cb3575f5ffd5b5051919050565b80820281158282048414176103f3576103f3610c51565b5f82610ceb57634e487b7160e01b5f52601260045260245ffd5b500490565b81516001600160a01b03908116825260208084015182169083015260408084015162ffffff169083015260608084015191821690830152610100820190506080830151608083015260a083015160a083015260c083015160c083015260e0830151610d6660e08401826001600160a01b03169052565b5092915050565b5f82515f5b81811015610d8c5760208186018101518583015201610d72565b505f920191825250919050565b5f60208284031215610da9575f5ffd5b815180151581146103e2575f5ffdfea26469706673582212209ebc784745c4320e3e4259e451fd36a57fe9efb163bdedc3ccace9bee06a5c1f64736f6c634300081c0033",
        "linkReferences": {}
    },
    "methodIdentifiers": {
        "activated(uint256)": "32fad9d8",
        "execute(uint256)": "fe0d94c1",
        "isExecutable(uint256)": "4e395e2a",
        "lastExecution(uint256)": "33f9d1d3",
        "owner(uint256)": "a123c33e",
        "params(uint256)": "9d2f053c",
        "poolFee()": "089fe6aa",
        "subscribe(bytes)": "4610b70a",
        "subscriptionId()": "09c1ba2e",
        "swapRouter()": "c31c9c07",
        "unsubscribe(uint256)": "ad0b27fb"
    },
    "id": 87
}