{"abi":[{"type":"constructor","inputs":[{"name":"_swapRouterAddress","type":"address","internalType":"address"}],"stateMutability":"nonpayable"},{"type":"function","name":"activated","inputs":[{"name":"","type":"uint256","internalType":"uint256"}],"outputs":[{"name":"","type":"bool","internalType":"bool"}],"stateMutability":"view"},{"type":"function","name":"execute","inputs":[{"name":"_subscriptionId","type":"uint256","internalType":"uint256"}],"outputs":[{"name":"","type":"bool","internalType":"bool"}],"stateMutability":"nonpayable"},{"type":"function","name":"getParams","inputs":[{"name":"_subscriptionId","type":"uint256","internalType":"uint256"}],"outputs":[{"name":"","type":"tuple","internalType":"struct SendTokenStrategy.SendStrategyParams","components":[{"name":"vaultAddress","type":"address","internalType":"address"},{"name":"yieldAsset","type":"address","internalType":"address"},{"name":"targetAsset","type":"address","internalType":"address"},{"name":"to","type":"address","internalType":"address"},{"name":"minSupplyThreshold","type":"uint256","internalType":"uint256"},{"name":"percentAllocation","type":"uint256","internalType":"uint256"},{"name":"executionAfter","type":"uint256","internalType":"uint256"}]}],"stateMutability":"view"},{"type":"function","name":"isExecutable","inputs":[{"name":"_subscriptionId","type":"uint256","internalType":"uint256"}],"outputs":[{"name":"","type":"bool","internalType":"bool"}],"stateMutability":"view"},{"type":"function","name":"lastExecution","inputs":[{"name":"","type":"uint256","internalType":"uint256"}],"outputs":[{"name":"timestamps","type":"uint256","internalType":"uint256"}],"stateMutability":"view"},{"type":"function","name":"owner","inputs":[{"name":"subscriptionId","type":"uint256","internalType":"uint256"}],"outputs":[{"name":"vaultAddress","type":"address","internalType":"address"}],"stateMutability":"view"},{"type":"function","name":"params","inputs":[{"name":"","type":"uint256","internalType":"uint256"}],"outputs":[{"name":"vaultAddress","type":"address","internalType":"address"},{"name":"yieldAsset","type":"address","internalType":"address"},{"name":"targetAsset","type":"address","internalType":"address"},{"name":"to","type":"address","internalType":"address"},{"name":"minSupplyThreshold","type":"uint256","internalType":"uint256"},{"name":"percentAllocation","type":"uint256","internalType":"uint256"},{"name":"executionAfter","type":"uint256","internalType":"uint256"}],"stateMutability":"view"},{"type":"function","name":"poolFee","inputs":[],"outputs":[{"name":"","type":"uint24","internalType":"uint24"}],"stateMutability":"view"},{"type":"function","name":"subscribe","inputs":[{"name":"_params","type":"bytes","internalType":"bytes"}],"outputs":[{"name":"","type":"uint256","internalType":"uint256"}],"stateMutability":"nonpayable"},{"type":"function","name":"subscriptionId","inputs":[],"outputs":[{"name":"","type":"uint256","internalType":"uint256"}],"stateMutability":"view"},{"type":"function","name":"swapRouter","inputs":[],"outputs":[{"name":"","type":"address","internalType":"contract ISwapRouter"}],"stateMutability":"view"},{"type":"function","name":"unsubscribe","inputs":[{"name":"_subscriptionId","type":"uint256","internalType":"uint256"}],"outputs":[],"stateMutability":"nonpayable"},{"type":"event","name":"StrategyExecuted","inputs":[{"name":"subscriptionId","type":"uint256","indexed":false,"internalType":"uint256"}],"anonymous":false},{"type":"event","name":"StrategySubscribed","inputs":[{"name":"subscriptionId","type":"uint256","indexed":false,"internalType":"uint256"},{"name":"vault","type":"address","indexed":false,"internalType":"address"},{"name":"params","type":"bytes","indexed":false,"internalType":"bytes"}],"anonymous":false},{"type":"event","name":"StrategyUnubscribed","inputs":[{"name":"subscriptionId","type":"uint256","indexed":false,"internalType":"uint256"}],"anonymous":false},{"type":"error","name":"InvalidPercentAllocationError","inputs":[]},{"type":"error","name":"InvalidToAddressError","inputs":[]}],"bytecode":{"object":"0x60a0604052348015600e575f5ffd5b50604051610f9e380380610f9e833981016040819052602b91603b565b6001600160a01b03166080526066565b5f60208284031215604a575f5ffd5b81516001600160a01b0381168114605f575f5ffd5b9392505050565b608051610f1261008c5f395f818161037b015281816107c801526108680152610f125ff3fe608060405234801561000f575f5ffd5b50600436106100b1575f3560e01c80634e395e2a1161006e5780634e395e2a1461026b5780639d2f053c1461027e578063a123c33e14610321578063ad0b27fb14610361578063c31c9c0714610376578063fe0d94c11461039d575f5ffd5b8063089fe6aa146100b557806308a4f072146100d757806309c1ba2e146101f157806332fad9d81461020757806333f9d1d3146102395780634610b70a14610258575b5f5ffd5b6100be610bb881565b60405162ffffff90911681526020015b60405180910390f35b61018e6100e5366004610bcd565b6040805160e0810182525f80825260208201819052918101829052606081018290526080810182905260a0810182905260c0810191909152505f90815260026020818152604092839020835160e08101855281546001600160a01b039081168252600183015481169382019390935292810154821693830193909352600383015416606082015260048201546080820152600582015460a082015260069091015460c082015290565b6040516100ce919081516001600160a01b039081168252602080840151821690830152604080840151821690830152606080840151909116908201526080808301519082015260a0828101519082015260c0918201519181019190915260e00190565b6101f95f5481565b6040519081526020016100ce565b610229610215366004610bcd565b60046020525f908152604090205460ff1681565b60405190151581526020016100ce565b6101f9610247366004610bcd565b60036020525f908152604090205481565b6101f9610266366004610c29565b6103b0565b610229610279366004610bcd565b61050e565b6102d861028c366004610bcd565b600260208190525f918252604090912080546001820154928201546003830154600484015460058501546006909501546001600160a01b03948516968516959385169490921692909187565b604080516001600160a01b039889168152968816602088015294871694860194909452949091166060840152608083015260a082019290925260c081019190915260e0016100ce565b61034961032f366004610bcd565b60016020525f90815260409020546001600160a01b031681565b6040516001600160a01b0390911681526020016100ce565b61037461036f366004610bcd565b61051e565b005b6103497f000000000000000000000000000000000000000000000000000000000000000081565b6102296103ab366004610bcd565b6105d1565b5f5f828060200190518101906103c69190610cd8565b90508060a001515f14806103e05750620f42408160a00151115b156103fe576040516359319bd760e11b815260040160405180910390fd5b60608101516001600160a01b03166104295760405163bc76bf9760e01b815260040160405180910390fd5b5f805481526001602081815260408084208054336001600160a01b0319918216179091558454855260028084528286208751815484166001600160a01b0391821617825588860151828801805486169183169190911790558885015192820180548516938216939093179092556060880151600382018054909416921691909117909155608086015160048083019190915560a0870151600583015560c0870151600690920191909155845485529091528220805460ff19169091179055805490806104f483610d89565b919050555060015f546105079190610da1565b9392505050565b5f61051882610927565b92915050565b5f818152600460208181526040808420805460ff1916905583548452600180835281852080546001600160a01b031990811690915586865260028085528387208054831681559283018054831690558201805482169055600380830180549092169091559381018590556005810185905560060184905591815281832092909255518281527f36b82c3fb7922259cc5b808280b84028fa7a7eed4d217ba9355c6f0b74cb8f0e910160405180910390a150565b5f818152600160205260408120546001600160a01b031633146106295760405162461bcd60e51b815260206004820152600b60248201526a139bdd08185b1b1bddd95960aa1b60448201526064015b60405180910390fd5b61063282610927565b61066f5760405162461bcd60e51b815260206004820152600e60248201526d4e6f742065786563757461626c6560901b6044820152606401610620565b5f8281526002602052604090206006015461068a9042610db4565b5f83815260036020908152604080832093909355600290528181206001810154905492516370a0823160e01b81526001600160a01b039384166004820152919216906370a0823190602401602060405180830381865afa1580156106f0573d5f5f3e3d5ffd5b505050506040513d601f19601f820116820180604052508101906107149190610dc7565b5f84815260026020526040902060040154909150811161073657505f92915050565b5f838152600260205260408120600401546107519083610da1565b5f8581526002602052604081206005015491925090620f4240906107759084610dde565b61077f9190610df5565b5f868152600260205260409020600101549091506107a8906001600160a01b03163330846109cd565b5f858152600260205260409020600101546107ed906001600160a01b03167f000000000000000000000000000000000000000000000000000000000000000083610ad2565b60408051610100810182525f8781526002602081815284832060018101546001600160a01b03908116865281840154811683870152610bb8868801528b855292909152600301548116606084015242608084015260a0830185905260c0830182905260e08301829052925163414bf38960e01b8152919290917f00000000000000000000000000000000000000000000000000000000000000009091169063414bf3899061089f908590600401610e14565b6020604051808303815f875af11580156108bb573d5f5f3e3d5ffd5b505050506040513d601f19601f820116820180604052508101906108df9190610dc7565b90507f0c61996d0e102905c02e7d181cec9e73f0ba00f7b4f6164a9908275c566479e28760405161091291815260200190565b60405180910390a15060019695505050505050565b5f81815260036020526040812054421080159061051857505f82815260026020526040908190206004808201546001830154925493516370a0823160e01b81526001600160a01b039485169281019290925292909116906370a0823190602401602060405180830381865afa1580156109a2573d5f5f3e3d5ffd5b505050506040513d601f19601f820116820180604052508101906109c69190610dc7565b1192915050565b604080516001600160a01b0385811660248301528481166044830152606480830185905283518084039091018152608490920183526020820180516001600160e01b03166323b872dd60e01b17905291515f92839290881691610a309190610e91565b5f604051808303815f865af19150503d805f8114610a69576040519150601f19603f3d011682016040523d82523d5f602084013e610a6e565b606091505b5091509150818015610a98575080511580610a98575080806020019051810190610a989190610ebd565b610aca5760405162461bcd60e51b815260206004820152600360248201526229aa2360e91b6044820152606401610620565b505050505050565b604080516001600160a01b038481166024830152604480830185905283518084039091018152606490920183526020820180516001600160e01b031663095ea7b360e01b17905291515f92839290871691610b2d9190610e91565b5f604051808303815f865af19150503d805f8114610b66576040519150601f19603f3d011682016040523d82523d5f602084013e610b6b565b606091505b5091509150818015610b95575080511580610b95575080806020019051810190610b959190610ebd565b610bc65760405162461bcd60e51b8152602060048201526002602482015261534160f01b6044820152606401610620565b5050505050565b5f60208284031215610bdd575f5ffd5b5035919050565b634e487b7160e01b5f52604160045260245ffd5b604051601f8201601f1916810167ffffffffffffffff81118282101715610c2157610c21610be4565b604052919050565b5f60208284031215610c39575f5ffd5b813567ffffffffffffffff811115610c4f575f5ffd5b8201601f81018413610c5f575f5ffd5b803567ffffffffffffffff811115610c7957610c79610be4565b610c8c601f8201601f1916602001610bf8565b818152856020838501011115610ca0575f5ffd5b816020840160208301375f91810160200191909152949350505050565b80516001600160a01b0381168114610cd3575f5ffd5b919050565b5f60e0828403128015610ce9575f5ffd5b5060405160e0810167ffffffffffffffff81118282101715610d0d57610d0d610be4565b604052610d1983610cbd565b8152610d2760208401610cbd565b6020820152610d3860408401610cbd565b6040820152610d4960608401610cbd565b60608201526080838101519082015260a0808401519082015260c0928301519281019290925250919050565b634e487b7160e01b5f52601160045260245ffd5b5f60018201610d9a57610d9a610d75565b5060010190565b8181038181111561051857610518610d75565b8082018082111561051857610518610d75565b5f60208284031215610dd7575f5ffd5b5051919050565b808202811582820484141761051857610518610d75565b5f82610e0f57634e487b7160e01b5f52601260045260245ffd5b500490565b81516001600160a01b03908116825260208084015182169083015260408084015162ffffff169083015260608084015191821690830152610100820190506080830151608083015260a083015160a083015260c083015160c083015260e0830151610e8a60e08401826001600160a01b03169052565b5092915050565b5f82515f5b81811015610eb05760208186018101518583015201610e96565b505f920191825250919050565b5f60208284031215610ecd575f5ffd5b81518015158114610507575f5ffdfea2646970667358221220d1b4574317a43475c0275bed82278e9b3a32fbf87fcc1dd1fa5db5cecf56a59d64736f6c634300081c0033","linkReferences":{}},"methodIdentifiers":{"activated(uint256)":"32fad9d8","execute(uint256)":"fe0d94c1","getParams(uint256)":"08a4f072","isExecutable(uint256)":"4e395e2a","lastExecution(uint256)":"33f9d1d3","owner(uint256)":"a123c33e","params(uint256)":"9d2f053c","poolFee()":"089fe6aa","subscribe(bytes)":"4610b70a","subscriptionId()":"09c1ba2e","swapRouter()":"c31c9c07","unsubscribe(uint256)":"ad0b27fb"},"id":90}