{"abi":[{"type":"constructor","inputs":[{"name":"_aaveProviderAddress","type":"address","internalType":"address"},{"name":"_manager","type":"address","internalType":"address"},{"name":"owner_","type":"address","internalType":"address"},{"name":"_color","type":"uint8","internalType":"uint8"},{"name":"_name","type":"string","internalType":"string"}],"stateMutability":"nonpayable"},{"type":"function","name":"POOL_ADDRESSES_PROVIDER_ADDRESS","inputs":[],"outputs":[{"name":"","type":"address","internalType":"address"}],"stateMutability":"view"},{"type":"function","name":"addStrategy","inputs":[{"name":"strategyAddress","type":"address","internalType":"address"},{"name":"params","type":"bytes","internalType":"bytes"}],"outputs":[{"name":"","type":"uint256","internalType":"uint256"}],"stateMutability":"nonpayable"},{"type":"function","name":"borrow","inputs":[{"name":"asset","type":"address","internalType":"address"},{"name":"amount","type":"uint256","internalType":"uint256"},{"name":"interestRateMode","type":"uint256","internalType":"uint256"}],"outputs":[],"stateMutability":"nonpayable"},{"type":"function","name":"color","inputs":[],"outputs":[{"name":"","type":"uint8","internalType":"uint8"}],"stateMutability":"view"},{"type":"function","name":"executeStrategies","inputs":[],"outputs":[],"stateMutability":"nonpayable"},{"type":"function","name":"hasStrategies","inputs":[],"outputs":[{"name":"","type":"bool","internalType":"bool"}],"stateMutability":"view"},{"type":"function","name":"manager","inputs":[],"outputs":[{"name":"","type":"address","internalType":"address"}],"stateMutability":"view"},{"type":"function","name":"name","inputs":[],"outputs":[{"name":"","type":"string","internalType":"string"}],"stateMutability":"view"},{"type":"function","name":"needExecution","inputs":[],"outputs":[{"name":"","type":"bool","internalType":"bool"}],"stateMutability":"view"},{"type":"function","name":"numberOfActivatedStrategies","inputs":[],"outputs":[{"name":"","type":"uint256","internalType":"uint256"}],"stateMutability":"view"},{"type":"function","name":"owner","inputs":[],"outputs":[{"name":"","type":"address","internalType":"address"}],"stateMutability":"view"},{"type":"function","name":"removeStrategy","inputs":[{"name":"strategyId","type":"uint256","internalType":"uint256"}],"outputs":[],"stateMutability":"nonpayable"},{"type":"function","name":"renounceOwnership","inputs":[],"outputs":[],"stateMutability":"nonpayable"},{"type":"function","name":"repay","inputs":[{"name":"asset","type":"address","internalType":"address"},{"name":"amount","type":"uint256","internalType":"uint256"},{"name":"interestRateMode","type":"uint256","internalType":"uint256"}],"outputs":[{"name":"","type":"uint256","internalType":"uint256"}],"stateMutability":"nonpayable"},{"type":"function","name":"subscribedStrategies","inputs":[{"name":"","type":"uint256","internalType":"uint256"}],"outputs":[{"name":"strategyAddress","type":"address","internalType":"address"},{"name":"subscriptionId","type":"uint256","internalType":"uint256"}],"stateMutability":"view"},{"type":"function","name":"supply","inputs":[{"name":"asset","type":"address","internalType":"address"},{"name":"amount","type":"uint256","internalType":"uint256"}],"outputs":[],"stateMutability":"nonpayable"},{"type":"function","name":"transferOwnership","inputs":[{"name":"newOwner","type":"address","internalType":"address"}],"outputs":[],"stateMutability":"nonpayable"},{"type":"function","name":"withdraw","inputs":[{"name":"asset","type":"address","internalType":"address"},{"name":"amount","type":"uint256","internalType":"uint256"}],"outputs":[],"stateMutability":"nonpayable"},{"type":"event","name":"Borrow","inputs":[{"name":"asset","type":"address","indexed":true,"internalType":"address"},{"name":"amount","type":"uint256","indexed":false,"internalType":"uint256"},{"name":"interestRateMode","type":"uint256","indexed":false,"internalType":"uint256"}],"anonymous":false},{"type":"event","name":"OwnershipTransferred","inputs":[{"name":"previousOwner","type":"address","indexed":true,"internalType":"address"},{"name":"newOwner","type":"address","indexed":true,"internalType":"address"}],"anonymous":false},{"type":"event","name":"Repay","inputs":[{"name":"asset","type":"address","indexed":true,"internalType":"address"},{"name":"amount","type":"uint256","indexed":false,"internalType":"uint256"},{"name":"interestRateMode","type":"uint256","indexed":false,"internalType":"uint256"}],"anonymous":false},{"type":"event","name":"StrategyAdded","inputs":[{"name":"strategyId","type":"uint256","indexed":false,"internalType":"uint256"},{"name":"strategyAddress","type":"address","indexed":false,"internalType":"address"},{"name":"params","type":"bytes","indexed":false,"internalType":"bytes"}],"anonymous":false},{"type":"event","name":"StrategyExecuted","inputs":[{"name":"strategyId","type":"uint256","indexed":false,"internalType":"uint256"},{"name":"strategyAddress","type":"address","indexed":false,"internalType":"address"},{"name":"subscriptionId","type":"uint256","indexed":false,"internalType":"uint256"}],"anonymous":false},{"type":"event","name":"StrategyRemoved","inputs":[{"name":"strategyId","type":"uint256","indexed":false,"internalType":"uint256"},{"name":"strategyAddress","type":"address","indexed":false,"internalType":"address"}],"anonymous":false},{"type":"event","name":"Supply","inputs":[{"name":"asset","type":"address","indexed":true,"internalType":"address"},{"name":"amount","type":"uint256","indexed":false,"internalType":"uint256"}],"anonymous":false},{"type":"event","name":"Withdraw","inputs":[{"name":"asset","type":"address","indexed":true,"internalType":"address"},{"name":"amount","type":"uint256","indexed":false,"internalType":"uint256"}],"anonymous":false},{"type":"error","name":"InvalidStrategyId","inputs":[{"name":"strategyId","type":"uint256","internalType":"uint256"}]},{"type":"error","name":"OwnableInvalidOwner","inputs":[{"name":"owner","type":"address","internalType":"address"}]},{"type":"error","name":"OwnableUnauthorizedAccount","inputs":[{"name":"account","type":"address","internalType":"address"}]},{"type":"error","name":"ReentrancyGuardReentrantCall","inputs":[]}],"bytecode":{"object":"0x60c060405234801561000f575f5ffd5b5060405161193038038061193083398101604081905261002e91610121565b826001600160a01b03811661005c57604051631e4fbdf760e01b81525f600482015260240160405180910390fd5b610065816100a3565b50600180556001600160a01b03858116608052841660a0526002805460ff191660ff8416179055600361009882826102b3565b50505050505061036d565b5f80546001600160a01b038381166001600160a01b0319831681178455604051919092169283917f8be0079c531659141344cd1fd0a4f28419497f9722a3daafe3b4186f6b6457e09190a35050565b80516001600160a01b0381168114610108575f5ffd5b919050565b634e487b7160e01b5f52604160045260245ffd5b5f5f5f5f5f60a08688031215610135575f5ffd5b61013e866100f2565b945061014c602087016100f2565b935061015a604087016100f2565b9250606086015160ff8116811461016f575f5ffd5b60808701519092506001600160401b0381111561018a575f5ffd5b8601601f8101881361019a575f5ffd5b80516001600160401b038111156101b3576101b361010d565b604051601f8201601f19908116603f011681016001600160401b03811182821017156101e1576101e161010d565b6040528181528282016020018a10156101f8575f5ffd5b5f5b82811015610216576020818501810151838301820152016101fa565b505f602083830101528093505050509295509295909350565b600181811c9082168061024357607f821691505b60208210810361026157634e487b7160e01b5f52602260045260245ffd5b50919050565b601f8211156102ae57805f5260205f20601f840160051c8101602085101561028c5750805b601f840160051c820191505b818110156102ab575f8155600101610298565b50505b505050565b81516001600160401b038111156102cc576102cc61010d565b6102e0816102da845461022f565b84610267565b6020601f821160018114610312575f83156102fb5750848201515b5f19600385901b1c1916600184901b1784556102ab565b5f84815260208120601f198516915b828110156103415787850151825560209485019460019092019101610321565b508482101561035e57868401515f19600387901b60f8161c191681555b50505050600190811b01905550565b60805160a0516115866103aa5f395f81816101670152818161096701528181610b180152610ec901525f81816101e2015261117301526115865ff3fe608060405234801561000f575f5ffd5b5060043610610111575f3560e01c80638da5cb5b1161009e578063cba388d51161006e578063cba388d51461026a578063cf08fed514610272578063f2b9fdb814610291578063f2fde38b146102a4578063f3fef3a3146102b7575f5ffd5b80638da5cb5b1461022a578063c0cbbca61461023a578063c1bce0b71461024d578063ca9cb55214610260575f5ffd5b80634f1902ea116100e45780634f1902ea146101a1578063715018a6146101d357806371bfc189146101dd5780637aeedf2a146102045780638cd2e0c714610217575f5ffd5b806306fdde03146101155780630e3a6e6514610133578063334ff6321461014b578063481c6a7514610162575b5f5ffd5b61011d6102ca565b60405161012a9190611263565b60405180910390f35b61013b610356565b604051901515815260200161012a565b61015460045481565b60405190815260200161012a565b6101897f000000000000000000000000000000000000000000000000000000000000000081565b6040516001600160a01b03909116815260200161012a565b6101b46101af36600461127c565b610440565b604080516001600160a01b03909316835260208301919091520161012a565b6101db610476565b005b6101897f000000000000000000000000000000000000000000000000000000000000000081565b6101546102123660046112bb565b610489565b610154610225366004611381565b61060c565b5f546001600160a01b0316610189565b6101db61024836600461127c565b6107e0565b6101db61025b366004611381565b61094c565b600454151561013b565b6101db610b0d565b60025461027f9060ff1681565b60405160ff909116815260200161012a565b6101db61029f3660046113b3565b610db3565b6101db6102b23660046113dd565b610ffc565b6101db6102c53660046113b3565b611039565b600380546102d7906113f8565b80601f0160208091040260200160405190810160405280929190818152602001828054610303906113f8565b801561034e5780601f106103255761010080835404028352916020019161034e565b820191905f5260205f20905b81548152906001019060200180831161033157829003601f168201915b505050505081565b5f805b600554811015610439575f6005828154811061037757610377611430565b5f9182526020822060029091020154600580546001600160a01b0390921693508391634e395e2a9190869081106103b0576103b0611430565b905f5260205f209060020201600101546040518263ffffffff1660e01b81526004016103de91815260200190565b602060405180830381865afa1580156103f9573d5f5f3e3d5ffd5b505050506040513d601f19601f8201168201806040525081019061041d9190611444565b9050801561042f576001935050505090565b5050600101610359565b505f905090565b6005818154811061044f575f80fd5b5f918252602090912060029091020180546001909101546001600160a01b03909116915082565b61047e6110f5565b6104875f611121565b565b5f6104926110f5565b6040516323085b8560e11b81525f906001600160a01b03851690634610b70a906104c0908690600401611263565b6020604051808303815f875af11580156104dc573d5f5f3e3d5ffd5b505050506040513d601f19601f820116820180604052508101906105009190611463565b604080518082019091526001600160a01b03868116825260208201838152600580546001810182555f91825293517f036b6384b5eca791c62761152d0c79bb0604c104a5fb6f4eb0703f3154bb3db0600290950294850180546001600160a01b0319169190941617909255517f036b6384b5eca791c62761152d0c79bb0604c104a5fb6f4eb0703f3154bb3db19092019190915560048054929350906105a58361148e565b91905055507f86036a4e46039f1ed7f0bd23dfbe0bf58bb25ba7d3b59370b6d20568e4d99b9a60016004546105da91906114a6565b85856040516105eb939291906114b9565b60405180910390a1600160045461060291906114a6565b9150505b92915050565b6040516323b872dd60e01b8152336004820152306024820152604481018390525f906001600160a01b038516906323b872dd906064016020604051808303815f875af115801561065e573d5f5f3e3d5ffd5b505050506040513d601f19601f820116820180604052508101906106829190611444565b50836001600160a01b031663095ea7b361069a611170565b6040516001600160e01b031960e084901b1681526001600160a01b039091166004820152602481018690526044016020604051808303815f875af11580156106e4573d5f5f3e3d5ffd5b505050506040513d601f19601f820116820180604052508101906107089190611444565b505f610712611170565b60405163573ade8160e01b81526001600160a01b0387811660048301526024820187905260448201869052306064830152919091169063573ade81906084016020604051808303815f875af115801561076d573d5f5f3e3d5ffd5b505050506040513d601f19601f820116820180604052508101906107919190611463565b60408051868152602081018690529192506001600160a01b038716917f77c6871227e5d2dec8dadd5354f78453203e22e669cd0ec4c19d9a8c5edb31d0910160405180910390a2949350505050565b6107e86110f5565b6004548110610812576040516302e9413560e11b8152600481018290526024015b60405180910390fd5b5f6005828154811061082657610826611430565b5f918252602090912060029091020154600580546001600160a01b03909216925090610854906001906114a6565b8154811061086457610864611430565b905f5260205f2090600202016005838154811061088357610883611430565b5f9182526020909120825460029092020180546001600160a01b0319166001600160a01b0390921691909117815560019182015491015560058054806108cb576108cb6114eb565b5f8281526020812060025f199093019283020180546001600160a01b031916815560010181905591556004805491610902836114ff565b9091555050604080518381526001600160a01b03831660208201527f7f705c9890e1e97666eb559f0069c51eb9c6d8e37d6628895f3a886cc57b5720910160405180910390a15050565b610954611170565b6001600160a01b031663a415bcad8484847f00000000000000000000000000000000000000000000000000000000000000006001600160a01b0316630b189c626040518163ffffffff1660e01b8152600401602060405180830381865afa1580156109c1573d5f5f3e3d5ffd5b505050506040513d601f19601f820116820180604052508101906109e59190611514565b6040516001600160e01b031960e087901b1681526001600160a01b0390941660048501526024840192909252604483015261ffff16606482015230608482015260a4015f604051808303815f87803b158015610a3f575f5ffd5b505af1158015610a51573d5f5f3e3d5ffd5b505060405163a9059cbb60e01b8152336004820152602481018590526001600160a01b038616925063a9059cbb91506044016020604051808303815f875af1158015610a9f573d5f5f3e3d5ffd5b505050506040513d601f19601f82011682018060405250810190610ac39190611444565b5060408051838152602081018390526001600160a01b038516917fe1979fe4c35e0cef342fef5668e2c8e7a7e9f5d5d1ca8fee0ac6c427fa4153af910160405180910390a2505050565b336001600160a01b037f00000000000000000000000000000000000000000000000000000000000000001614610b915760405162461bcd60e51b815260206004820152602360248201527f4f6e6c79206d616e616765722063616e2063616c6c20746869732066756e637460448201526234b7b760e91b6064820152608401610809565b610b996111f6565b5f5b600554811015610da9575f60058281548110610bb957610bb9611430565b5f9182526020822060029091020154600580546001600160a01b0390921693508391634e395e2a919086908110610bf257610bf2611430565b905f5260205f209060020201600101546040518263ffffffff1660e01b8152600401610c2091815260200190565b602060405180830381865afa158015610c3b573d5f5f3e3d5ffd5b505050506040513d601f19601f82011682018060405250810190610c5f9190611444565b90508015610d9f57816001600160a01b031663fe0d94c160058581548110610c8957610c89611430565b905f5260205f209060020201600101546040518263ffffffff1660e01b8152600401610cb791815260200190565b6020604051808303815f875af1158015610cd3573d5f5f3e3d5ffd5b505050506040513d601f19601f82011682018060405250810190610cf79190611444565b507f7e620ce4c907c1b1a27ab0e8bb25d1dfb0f0cf0ac89bee0fa630907727e927e58360058581548110610d2d57610d2d611430565b5f918252602090912060029091020154600580546001600160a01b039092169187908110610d5d57610d5d611430565b905f5260205f20906002020160010154604051610d96939291909283526001600160a01b03919091166020830152604082015260600190565b60405180910390a15b5050600101610b9b565b5061048760018055565b6040516323b872dd60e01b8152336004820152306024820152604481018290526001600160a01b038316906323b872dd906064016020604051808303815f875af1158015610e03573d5f5f3e3d5ffd5b505050506040513d601f19601f82011682018060405250810190610e279190611444565b50816001600160a01b031663095ea7b3610e3f611170565b6040516001600160e01b031960e084901b1681526001600160a01b039091166004820152602481018490526044016020604051808303815f875af1158015610e89573d5f5f3e3d5ffd5b505050506040513d601f19601f82011682018060405250810190610ead9190611444565b50610eb6611170565b6001600160a01b031663617ba0378383307f00000000000000000000000000000000000000000000000000000000000000006001600160a01b0316630b189c626040518163ffffffff1660e01b8152600401602060405180830381865afa158015610f23573d5f5f3e3d5ffd5b505050506040513d601f19601f82011682018060405250810190610f479190611514565b6040516001600160e01b031960e087901b1681526001600160a01b03948516600482015260248101939093529216604482015261ffff90911660648201526084015f604051808303815f87803b158015610f9f575f5ffd5b505af1158015610fb1573d5f5f3e3d5ffd5b50505050816001600160a01b03167fadacf827efe383160192c092d8658471945c074229a9746679b5e2b74adff19182604051610ff091815260200190565b60405180910390a25050565b6110046110f5565b6001600160a01b03811661102d57604051631e4fbdf760e01b81525f6004820152602401610809565b61103681611121565b50565b611041611170565b604051631a4ca37b60e21b81526001600160a01b0384811660048301526024820184905233604483015291909116906369328dec906064016020604051808303815f875af1158015611095573d5f5f3e3d5ffd5b505050506040513d601f19601f820116820180604052508101906110b99190611463565b50816001600160a01b03167f884edad9ce6fa2440d8a54cc123490eb96d2768479d49ff9c7366125a942436482604051610ff091815260200190565b5f546001600160a01b031633146104875760405163118cdaa760e01b8152336004820152602401610809565b5f80546001600160a01b038381166001600160a01b0319831681178455604051919092169283917f8be0079c531659141344cd1fd0a4f28419497f9722a3daafe3b4186f6b6457e09190a35050565b5f7f00000000000000000000000000000000000000000000000000000000000000006001600160a01b031663026b1d5f6040518163ffffffff1660e01b8152600401602060405180830381865afa1580156111cd573d5f5f3e3d5ffd5b505050506040513d601f19601f820116820180604052508101906111f19190611535565b905090565b60026001540361121957604051633ee5aeb560e01b815260040160405180910390fd5b6002600155565b5f81518084525f5b8181101561124457602081850181015186830182015201611228565b505f602082860101526020601f19601f83011685010191505092915050565b602081525f6112756020830184611220565b9392505050565b5f6020828403121561128c575f5ffd5b5035919050565b6001600160a01b0381168114611036575f5ffd5b634e487b7160e01b5f52604160045260245ffd5b5f5f604083850312156112cc575f5ffd5b82356112d781611293565b9150602083013567ffffffffffffffff8111156112f2575f5ffd5b8301601f81018513611302575f5ffd5b803567ffffffffffffffff81111561131c5761131c6112a7565b604051601f8201601f19908116603f0116810167ffffffffffffffff8111828210171561134b5761134b6112a7565b604052818152828201602001871015611362575f5ffd5b816020840160208301375f602083830101528093505050509250929050565b5f5f5f60608486031215611393575f5ffd5b833561139e81611293565b95602085013595506040909401359392505050565b5f5f604083850312156113c4575f5ffd5b82356113cf81611293565b946020939093013593505050565b5f602082840312156113ed575f5ffd5b813561127581611293565b600181811c9082168061140c57607f821691505b60208210810361142a57634e487b7160e01b5f52602260045260245ffd5b50919050565b634e487b7160e01b5f52603260045260245ffd5b5f60208284031215611454575f5ffd5b81518015158114611275575f5ffd5b5f60208284031215611473575f5ffd5b5051919050565b634e487b7160e01b5f52601160045260245ffd5b5f6001820161149f5761149f61147a565b5060010190565b818103818111156106065761060661147a565b8381526001600160a01b03831660208201526060604082018190525f906114e290830184611220565b95945050505050565b634e487b7160e01b5f52603160045260245ffd5b5f8161150d5761150d61147a565b505f190190565b5f60208284031215611524575f5ffd5b815161ffff81168114611275575f5ffd5b5f60208284031215611545575f5ffd5b81516112758161129356fea26469706673582212208bcc8799c2f799585d3c7a44acaa47aaa579ad20eb262cbaa015ef5bfb8f9cc164736f6c634300081c0033","linkReferences":{}},"methodIdentifiers":{"POOL_ADDRESSES_PROVIDER_ADDRESS()":"71bfc189","addStrategy(address,bytes)":"7aeedf2a","borrow(address,uint256,uint256)":"c1bce0b7","color()":"cf08fed5","executeStrategies()":"cba388d5","hasStrategies()":"ca9cb552","manager()":"481c6a75","name()":"06fdde03","needExecution()":"0e3a6e65","numberOfActivatedStrategies()":"334ff632","owner()":"8da5cb5b","removeStrategy(uint256)":"c0cbbca6","renounceOwnership()":"715018a6","repay(address,uint256,uint256)":"8cd2e0c7","subscribedStrategies(uint256)":"4f1902ea","supply(address,uint256)":"f2b9fdb8","transferOwnership(address)":"f2fde38b","withdraw(address,uint256)":"f3fef3a3"},"id":84}