{"abi":[{"type":"constructor","inputs":[{"name":"_aaveProviderAddress","type":"address","internalType":"address"},{"name":"_manager","type":"address","internalType":"address"},{"name":"owner_","type":"address","internalType":"address"},{"name":"_color","type":"uint8","internalType":"uint8"},{"name":"_name","type":"string","internalType":"string"}],"stateMutability":"nonpayable"},{"type":"function","name":"POOL_ADDRESSES_PROVIDER_ADDRESS","inputs":[],"outputs":[{"name":"","type":"address","internalType":"address"}],"stateMutability":"view"},{"type":"function","name":"addStrategy","inputs":[{"name":"strategyAddress","type":"address","internalType":"address"},{"name":"params","type":"bytes","internalType":"bytes"}],"outputs":[{"name":"","type":"uint256","internalType":"uint256"}],"stateMutability":"nonpayable"},{"type":"function","name":"borrow","inputs":[{"name":"asset","type":"address","internalType":"address"},{"name":"amount","type":"uint256","internalType":"uint256"},{"name":"interestRateMode","type":"uint256","internalType":"uint256"}],"outputs":[],"stateMutability":"nonpayable"},{"type":"function","name":"color","inputs":[],"outputs":[{"name":"","type":"uint8","internalType":"uint8"}],"stateMutability":"view"},{"type":"function","name":"executeStrategies","inputs":[],"outputs":[],"stateMutability":"nonpayable"},{"type":"function","name":"getAllSubscribedStrategies","inputs":[],"outputs":[{"name":"","type":"tuple[]","internalType":"struct SubscribeStrategyStruct[]","components":[{"name":"strategyAddress","type":"address","internalType":"address"},{"name":"subscriptionId","type":"uint256","internalType":"uint256"}]}],"stateMutability":"view"},{"type":"function","name":"hasStrategies","inputs":[],"outputs":[{"name":"","type":"bool","internalType":"bool"}],"stateMutability":"view"},{"type":"function","name":"manager","inputs":[],"outputs":[{"name":"","type":"address","internalType":"address"}],"stateMutability":"view"},{"type":"function","name":"name","inputs":[],"outputs":[{"name":"","type":"string","internalType":"string"}],"stateMutability":"view"},{"type":"function","name":"needExecution","inputs":[],"outputs":[{"name":"","type":"bool","internalType":"bool"}],"stateMutability":"view"},{"type":"function","name":"numberOfActivatedStrategies","inputs":[],"outputs":[{"name":"","type":"uint256","internalType":"uint256"}],"stateMutability":"view"},{"type":"function","name":"owner","inputs":[],"outputs":[{"name":"","type":"address","internalType":"address"}],"stateMutability":"view"},{"type":"function","name":"removeStrategy","inputs":[{"name":"strategyId","type":"uint256","internalType":"uint256"}],"outputs":[],"stateMutability":"nonpayable"},{"type":"function","name":"renounceOwnership","inputs":[],"outputs":[],"stateMutability":"nonpayable"},{"type":"function","name":"repay","inputs":[{"name":"asset","type":"address","internalType":"address"},{"name":"amount","type":"uint256","internalType":"uint256"},{"name":"interestRateMode","type":"uint256","internalType":"uint256"}],"outputs":[{"name":"","type":"uint256","internalType":"uint256"}],"stateMutability":"nonpayable"},{"type":"function","name":"subscribedStrategies","inputs":[{"name":"","type":"uint256","internalType":"uint256"}],"outputs":[{"name":"strategyAddress","type":"address","internalType":"address"},{"name":"subscriptionId","type":"uint256","internalType":"uint256"}],"stateMutability":"view"},{"type":"function","name":"supply","inputs":[{"name":"asset","type":"address","internalType":"address"},{"name":"amount","type":"uint256","internalType":"uint256"}],"outputs":[],"stateMutability":"nonpayable"},{"type":"function","name":"transferOwnership","inputs":[{"name":"newOwner","type":"address","internalType":"address"}],"outputs":[],"stateMutability":"nonpayable"},{"type":"function","name":"withdraw","inputs":[{"name":"asset","type":"address","internalType":"address"},{"name":"amount","type":"uint256","internalType":"uint256"}],"outputs":[],"stateMutability":"nonpayable"},{"type":"event","name":"Borrow","inputs":[{"name":"asset","type":"address","indexed":true,"internalType":"address"},{"name":"amount","type":"uint256","indexed":false,"internalType":"uint256"},{"name":"interestRateMode","type":"uint256","indexed":false,"internalType":"uint256"}],"anonymous":false},{"type":"event","name":"OwnershipTransferred","inputs":[{"name":"previousOwner","type":"address","indexed":true,"internalType":"address"},{"name":"newOwner","type":"address","indexed":true,"internalType":"address"}],"anonymous":false},{"type":"event","name":"Repay","inputs":[{"name":"asset","type":"address","indexed":true,"internalType":"address"},{"name":"amount","type":"uint256","indexed":false,"internalType":"uint256"},{"name":"interestRateMode","type":"uint256","indexed":false,"internalType":"uint256"}],"anonymous":false},{"type":"event","name":"StrategyAdded","inputs":[{"name":"strategyAddress","type":"address","indexed":false,"internalType":"address"},{"name":"subscribeStrategyId","type":"uint256","indexed":false,"internalType":"uint256"},{"name":"params","type":"bytes","indexed":false,"internalType":"bytes"}],"anonymous":false},{"type":"event","name":"StrategyExecuted","inputs":[{"name":"strategyAddress","type":"address","indexed":false,"internalType":"address"},{"name":"subscriptionId","type":"uint256","indexed":false,"internalType":"uint256"}],"anonymous":false},{"type":"event","name":"StrategyRemoved","inputs":[{"name":"strategyAddress","type":"address","indexed":false,"internalType":"address"},{"name":"subscriptionId","type":"uint256","indexed":false,"internalType":"uint256"}],"anonymous":false},{"type":"event","name":"Supply","inputs":[{"name":"asset","type":"address","indexed":true,"internalType":"address"},{"name":"amount","type":"uint256","indexed":false,"internalType":"uint256"}],"anonymous":false},{"type":"event","name":"Withdraw","inputs":[{"name":"asset","type":"address","indexed":true,"internalType":"address"},{"name":"amount","type":"uint256","indexed":false,"internalType":"uint256"}],"anonymous":false},{"type":"error","name":"InvalidStrategyId","inputs":[{"name":"strategyId","type":"uint256","internalType":"uint256"}]},{"type":"error","name":"OwnableInvalidOwner","inputs":[{"name":"owner","type":"address","internalType":"address"}]},{"type":"error","name":"OwnableUnauthorizedAccount","inputs":[{"name":"account","type":"address","internalType":"address"}]},{"type":"error","name":"ReentrancyGuardReentrantCall","inputs":[]}],"bytecode":{"object":"0x60c060405234801561000f575f5ffd5b50604051611cab380380611cab83398101604081905261002e91610121565b826001600160a01b03811661005c57604051631e4fbdf760e01b81525f600482015260240160405180910390fd5b610065816100a3565b50600180556001600160a01b03858116608052841660a0526002805460ff191660ff8416179055600361009882826102b3565b50505050505061036d565b5f80546001600160a01b038381166001600160a01b0319831681178455604051919092169283917f8be0079c531659141344cd1fd0a4f28419497f9722a3daafe3b4186f6b6457e09190a35050565b80516001600160a01b0381168114610108575f5ffd5b919050565b634e487b7160e01b5f52604160045260245ffd5b5f5f5f5f5f60a08688031215610135575f5ffd5b61013e866100f2565b945061014c602087016100f2565b935061015a604087016100f2565b9250606086015160ff8116811461016f575f5ffd5b60808701519092506001600160401b0381111561018a575f5ffd5b8601601f8101881361019a575f5ffd5b80516001600160401b038111156101b3576101b361010d565b604051601f8201601f19908116603f011681016001600160401b03811182821017156101e1576101e161010d565b6040528181528282016020018a10156101f8575f5ffd5b5f5b82811015610216576020818501810151838301820152016101fa565b505f602083830101528093505050509295509295909350565b600181811c9082168061024357607f821691505b60208210810361026157634e487b7160e01b5f52602260045260245ffd5b50919050565b601f8211156102ae57805f5260205f20601f840160051c8101602085101561028c5750805b601f840160051c820191505b818110156102ab575f8155600101610298565b50505b505050565b81516001600160401b038111156102cc576102cc61010d565b6102e0816102da845461022f565b84610267565b6020601f821160018114610312575f83156102fb5750848201515b5f19600385901b1c1916600184901b1784556102ab565b5f84815260208120601f198516915b828110156103415787850151825560209485019460019092019101610321565b508482101561035e57868401515f19600387901b60f8161c191681555b50505050600190811b01905550565b60805160a0516118ec6103bf5f395f8181610172015281816103850152818161058f01528181610bb801528181610d6a01528181610df901526111d101525f81816101ed015261148501526118ec5ff3fe608060405234801561000f575f5ffd5b506004361061011c575f3560e01c80638cd2e0c7116100a9578063cba388d51161006e578063cba388d51461028a578063cf08fed514610292578063f2b9fdb8146102b1578063f2fde38b146102c4578063f3fef3a3146102d7575f5ffd5b80638cd2e0c7146102375780638da5cb5b1461024a578063c0cbbca61461025a578063c1bce0b71461026d578063ca9cb55214610280575f5ffd5b80634f1902ea116100ef5780634f1902ea146101ac578063715018a6146101de57806371bfc189146101e85780637aeedf2a1461020f5780637f41969414610222575f5ffd5b806306fdde03146101205780630e3a6e651461013e578063334ff63214610156578063481c6a751461016d575b5f5ffd5b6101286102ea565b6040516101359190611575565b60405180910390f35b610146610376565b6040519015158152602001610135565b61015f60045481565b604051908152602001610135565b6101947f000000000000000000000000000000000000000000000000000000000000000081565b6040516001600160a01b039091168152602001610135565b6101bf6101ba36600461158e565b61051e565b604080516001600160a01b039093168352602083019190915201610135565b6101e6610554565b005b6101947f000000000000000000000000000000000000000000000000000000000000000081565b61015f61021d3660046115cd565b610567565b61022a6107b5565b6040516101359190611693565b61015f6102453660046116ea565b610828565b5f546001600160a01b0316610194565b6101e661026836600461158e565b610a03565b6101e661027b3660046116ea565b610b95565b6004541515610146565b6101e6610d5f565b60025461029f9060ff1681565b60405160ff9091168152602001610135565b6101e66102bf36600461171c565b6110b3565b6101e66102d2366004611746565b611304565b6101e66102e536600461171c565b611341565b600380546102f790611761565b80601f016020809104026020016040519081016040528092919081815260200182805461032390611761565b801561036e5780601f106103455761010080835404028352916020019161036e565b820191905f5260205f20905b81548152906001019060200180831161035157829003601f168201915b505050505081565b5f805b600554811015610517577f00000000000000000000000000000000000000000000000000000000000000006001600160a01b031663a192c288600583815481106103c5576103c5611799565b5f91825260209091206002909102015460405160e083901b6001600160e01b03191681526001600160a01b039091166004820152602401602060405180830381865afa158015610417573d5f5f3e3d5ffd5b505050506040513d601f19601f8201168201806040525081019061043b91906117ad565b1561050f575f6005828154811061045457610454611799565b5f9182526020822060029091020154600580546001600160a01b0390921693508391634e395e2a91908690811061048d5761048d611799565b905f5260205f209060020201600101546040518263ffffffff1660e01b81526004016104bb91815260200190565b602060405180830381865afa1580156104d6573d5f5f3e3d5ffd5b505050506040513d601f19601f820116820180604052508101906104fa91906117ad565b9050801561050c576001935050505090565b50505b600101610379565b505f905090565b6005818154811061052d575f80fd5b5f918252602090912060029091020180546001909101546001600160a01b03909116915082565b61055c611407565b6105655f611433565b565b5f610570611407565b604051631432585160e31b81526001600160a01b0384811660048301527f0000000000000000000000000000000000000000000000000000000000000000169063a192c28890602401602060405180830381865afa1580156105d4573d5f5f3e3d5ffd5b505050506040513d601f19601f820116820180604052508101906105f891906117ad565b6106495760405162461bcd60e51b815260206004820152601860248201527f5374726174656779206e6f742077686974656c6973746564000000000000000060448201526064015b60405180910390fd5b6040516323085b8560e11b81525f906001600160a01b03851690634610b70a90610677908690600401611575565b6020604051808303815f875af1158015610693573d5f5f3e3d5ffd5b505050506040513d601f19601f820116820180604052508101906106b791906117cc565b604080518082019091526001600160a01b03868116825260208201838152600580546001810182555f91825293517f036b6384b5eca791c62761152d0c79bb0604c104a5fb6f4eb0703f3154bb3db0600290950294850180546001600160a01b0319169190941617909255517f036b6384b5eca791c62761152d0c79bb0604c104a5fb6f4eb0703f3154bb3db190920191909155600480549293509061075c836117f7565b91905055507f88f76c426074fcdd1c162d79fa9963986dde5002807d81f10cc54e31473f4d918482856040516107949392919061180f565b60405180910390a160016004546107ab919061183e565b9150505b92915050565b60606005805480602002602001604051908101604052809291908181526020015f905b8282101561081f575f848152602090819020604080518082019091526002850290910180546001600160a01b031682526001908101548284015290835290920191016107d8565b50505050905090565b5f610831611407565b6040516323b872dd60e01b8152336004820152306024820152604481018490526001600160a01b038516906323b872dd906064016020604051808303815f875af1158015610881573d5f5f3e3d5ffd5b505050506040513d601f19601f820116820180604052508101906108a591906117ad565b50836001600160a01b031663095ea7b36108bd611482565b6040516001600160e01b031960e084901b1681526001600160a01b039091166004820152602481018690526044016020604051808303815f875af1158015610907573d5f5f3e3d5ffd5b505050506040513d601f19601f8201168201806040525081019061092b91906117ad565b505f610935611482565b60405163573ade8160e01b81526001600160a01b0387811660048301526024820187905260448201869052306064830152919091169063573ade81906084016020604051808303815f875af1158015610990573d5f5f3e3d5ffd5b505050506040513d601f19601f820116820180604052508101906109b491906117cc565b60408051828152602081018690529192506001600160a01b038716917f77c6871227e5d2dec8dadd5354f78453203e22e669cd0ec4c19d9a8c5edb31d0910160405180910390a2949350505050565b610a0b611407565b6004548110610a30576040516302e9413560e11b815260048101829052602401610640565b5f60058281548110610a4457610a44611799565b5f9182526020822060029091020154600580546001600160a01b0390921693509084908110610a7557610a75611799565b905f5260205f20906002020160010154905060056001600580549050610a9b919061183e565b81548110610aab57610aab611799565b905f5260205f20906002020160058481548110610aca57610aca611799565b5f9182526020909120825460029092020180546001600160a01b0319166001600160a01b039092169190911781556001918201549101556005805480610b1257610b12611851565b5f8281526020812060025f199093019283020180546001600160a01b031916815560010181905591556004805491610b4983611865565b9091555050604080516001600160a01b0384168152602081018390527fbbf656fe5bdad4acb6ad855a12c9cb30a54f2171f421df7461c587557e916b3a910160405180910390a1505050565b610b9d611407565b610ba5611482565b6001600160a01b031663a415bcad8484847f00000000000000000000000000000000000000000000000000000000000000006001600160a01b0316630b189c626040518163ffffffff1660e01b8152600401602060405180830381865afa158015610c12573d5f5f3e3d5ffd5b505050506040513d601f19601f82011682018060405250810190610c36919061187a565b6040516001600160e01b031960e087901b1681526001600160a01b0390941660048501526024840192909252604483015261ffff16606482015230608482015260a4015f604051808303815f87803b158015610c90575f5ffd5b505af1158015610ca2573d5f5f3e3d5ffd5b505060405163a9059cbb60e01b8152336004820152602481018590526001600160a01b038616925063a9059cbb91506044016020604051808303815f875af1158015610cf0573d5f5f3e3d5ffd5b505050506040513d601f19601f82011682018060405250810190610d1491906117ad565b5060408051838152602081018390526001600160a01b038516917fe1979fe4c35e0cef342fef5668e2c8e7a7e9f5d5d1ca8fee0ac6c427fa4153af91015b60405180910390a2505050565b336001600160a01b037f00000000000000000000000000000000000000000000000000000000000000001614610de35760405162461bcd60e51b815260206004820152602360248201527f4f6e6c79206d616e616765722063616e2063616c6c20746869732066756e637460448201526234b7b760e91b6064820152608401610640565b610deb611508565b5f5b6005548110156110a9577f00000000000000000000000000000000000000000000000000000000000000006001600160a01b031663a192c28860058381548110610e3957610e39611799565b5f91825260209091206002909102015460405160e083901b6001600160e01b03191681526001600160a01b039091166004820152602401602060405180830381865afa158015610e8b573d5f5f3e3d5ffd5b505050506040513d601f19601f82011682018060405250810190610eaf91906117ad565b156110a1575f60058281548110610ec857610ec8611799565b5f9182526020822060029091020154600580546001600160a01b0390921693508391634e395e2a919086908110610f0157610f01611799565b905f5260205f209060020201600101546040518263ffffffff1660e01b8152600401610f2f91815260200190565b602060405180830381865afa158015610f4a573d5f5f3e3d5ffd5b505050506040513d601f19601f82011682018060405250810190610f6e91906117ad565b9050801561109e57816001600160a01b031663fe0d94c160058581548110610f9857610f98611799565b905f5260205f209060020201600101546040518263ffffffff1660e01b8152600401610fc691815260200190565b6020604051808303815f875af1158015610fe2573d5f5f3e3d5ffd5b505050506040513d601f19601f8201168201806040525081019061100691906117ad565b507fb811d939986ff732fa5e25c43b2791456c5d775210b54de1b1c6ddce94f051296005848154811061103b5761103b611799565b5f918252602090912060029091020154600580546001600160a01b03909216918690811061106b5761106b611799565b5f91825260209182902060016002909202010154604080516001600160a01b039094168452918301520160405180910390a15b50505b600101610ded565b5061056560018055565b6110bb611407565b6040516323b872dd60e01b8152336004820152306024820152604481018290526001600160a01b038316906323b872dd906064016020604051808303815f875af115801561110b573d5f5f3e3d5ffd5b505050506040513d601f19601f8201168201806040525081019061112f91906117ad565b50816001600160a01b031663095ea7b3611147611482565b6040516001600160e01b031960e084901b1681526001600160a01b039091166004820152602481018490526044016020604051808303815f875af1158015611191573d5f5f3e3d5ffd5b505050506040513d601f19601f820116820180604052508101906111b591906117ad565b506111be611482565b6001600160a01b031663617ba0378383307f00000000000000000000000000000000000000000000000000000000000000006001600160a01b0316630b189c626040518163ffffffff1660e01b8152600401602060405180830381865afa15801561122b573d5f5f3e3d5ffd5b505050506040513d601f19601f8201168201806040525081019061124f919061187a565b6040516001600160e01b031960e087901b1681526001600160a01b03948516600482015260248101939093529216604482015261ffff90911660648201526084015f604051808303815f87803b1580156112a7575f5ffd5b505af11580156112b9573d5f5f3e3d5ffd5b50505050816001600160a01b03167fadacf827efe383160192c092d8658471945c074229a9746679b5e2b74adff191826040516112f891815260200190565b60405180910390a25050565b61130c611407565b6001600160a01b03811661133557604051631e4fbdf760e01b81525f6004820152602401610640565b61133e81611433565b50565b611349611407565b5f611352611482565b604051631a4ca37b60e21b81526001600160a01b0385811660048301526024820185905233604483015291909116906369328dec906064016020604051808303815f875af11580156113a6573d5f5f3e3d5ffd5b505050506040513d601f19601f820116820180604052508101906113ca91906117cc565b9050826001600160a01b03167f884edad9ce6fa2440d8a54cc123490eb96d2768479d49ff9c7366125a942436482604051610d5291815260200190565b5f546001600160a01b031633146105655760405163118cdaa760e01b8152336004820152602401610640565b5f80546001600160a01b038381166001600160a01b0319831681178455604051919092169283917f8be0079c531659141344cd1fd0a4f28419497f9722a3daafe3b4186f6b6457e09190a35050565b5f7f00000000000000000000000000000000000000000000000000000000000000006001600160a01b031663026b1d5f6040518163ffffffff1660e01b8152600401602060405180830381865afa1580156114df573d5f5f3e3d5ffd5b505050506040513d601f19601f82011682018060405250810190611503919061189b565b905090565b60026001540361152b57604051633ee5aeb560e01b815260040160405180910390fd5b6002600155565b5f81518084525f5b818110156115565760208185018101518683018201520161153a565b505f602082860101526020601f19601f83011685010191505092915050565b602081525f6115876020830184611532565b9392505050565b5f6020828403121561159e575f5ffd5b5035919050565b6001600160a01b038116811461133e575f5ffd5b634e487b7160e01b5f52604160045260245ffd5b5f5f604083850312156115de575f5ffd5b82356115e9816115a5565b9150602083013567ffffffffffffffff811115611604575f5ffd5b8301601f81018513611614575f5ffd5b803567ffffffffffffffff81111561162e5761162e6115b9565b604051601f8201601f19908116603f0116810167ffffffffffffffff8111828210171561165d5761165d6115b9565b604052818152828201602001871015611674575f5ffd5b816020840160208301375f602083830101528093505050509250929050565b602080825282518282018190525f918401906040840190835b818110156116df57835180516001600160a01b0316845260209081015181850152909301926040909201916001016116ac565b509095945050505050565b5f5f5f606084860312156116fc575f5ffd5b8335611707816115a5565b95602085013595506040909401359392505050565b5f5f6040838503121561172d575f5ffd5b8235611738816115a5565b946020939093013593505050565b5f60208284031215611756575f5ffd5b8135611587816115a5565b600181811c9082168061177557607f821691505b60208210810361179357634e487b7160e01b5f52602260045260245ffd5b50919050565b634e487b7160e01b5f52603260045260245ffd5b5f602082840312156117bd575f5ffd5b81518015158114611587575f5ffd5b5f602082840312156117dc575f5ffd5b5051919050565b634e487b7160e01b5f52601160045260245ffd5b5f60018201611808576118086117e3565b5060010190565b60018060a01b0384168152826020820152606060408201525f6118356060830184611532565b95945050505050565b818103818111156107af576107af6117e3565b634e487b7160e01b5f52603160045260245ffd5b5f81611873576118736117e3565b505f190190565b5f6020828403121561188a575f5ffd5b815161ffff81168114611587575f5ffd5b5f602082840312156118ab575f5ffd5b8151611587816115a556fea264697066735822122061681f53c4fdf8c6ff59130420cf0453b52f43b52e7059256d9f79191c7df4ae64736f6c634300081c0033","linkReferences":{}},"methodIdentifiers":{"POOL_ADDRESSES_PROVIDER_ADDRESS()":"71bfc189","addStrategy(address,bytes)":"7aeedf2a","borrow(address,uint256,uint256)":"c1bce0b7","color()":"cf08fed5","executeStrategies()":"cba388d5","getAllSubscribedStrategies()":"7f419694","hasStrategies()":"ca9cb552","manager()":"481c6a75","name()":"06fdde03","needExecution()":"0e3a6e65","numberOfActivatedStrategies()":"334ff632","owner()":"8da5cb5b","removeStrategy(uint256)":"c0cbbca6","renounceOwnership()":"715018a6","repay(address,uint256,uint256)":"8cd2e0c7","subscribedStrategies(uint256)":"4f1902ea","supply(address,uint256)":"f2b9fdb8","transferOwnership(address)":"f2fde38b","withdraw(address,uint256)":"f3fef3a3"},"id":87}