{
    "abi": [
        {
            "type": "constructor",
            "inputs": [
                {
                    "name": "owner",
                    "type": "address",
                    "internalType": "address"
                }
            ],
            "stateMutability": "nonpayable"
        },
        {
            "type": "function",
            "name": "AAVE_POOL_ADDRESS",
            "inputs": [],
            "outputs": [
                {
                    "name": "",
                    "type": "address",
                    "internalType": "address"
                }
            ],
            "stateMutability": "view"
        },
        {
            "type": "function",
            "name": "REFERRAL_CODE",
            "inputs": [],
            "outputs": [
                {
                    "name": "",
                    "type": "uint16",
                    "internalType": "uint16"
                }
            ],
            "stateMutability": "view"
        },
        {
            "type": "function",
            "name": "borrow",
            "inputs": [
                {
                    "name": "asset",
                    "type": "address",
                    "internalType": "address"
                },
                {
                    "name": "amount",
                    "type": "uint256",
                    "internalType": "uint256"
                },
                {
                    "name": "interestRateMode",
                    "type": "uint256",
                    "internalType": "uint256"
                }
            ],
            "outputs": [],
            "stateMutability": "nonpayable"
        },
        {
            "type": "function",
            "name": "executeStrategy",
            "inputs": [
                {
                    "name": "id",
                    "type": "uint256",
                    "internalType": "uint256"
                }
            ],
            "outputs": [],
            "stateMutability": "nonpayable"
        },
        {
            "type": "function",
            "name": "getReservesList",
            "inputs": [],
            "outputs": [
                {
                    "name": "data",
                    "type": "address[]",
                    "internalType": "address[]"
                }
            ],
            "stateMutability": "view"
        },
        {
            "type": "function",
            "name": "owner",
            "inputs": [],
            "outputs": [
                {
                    "name": "",
                    "type": "address",
                    "internalType": "address"
                }
            ],
            "stateMutability": "view"
        },
        {
            "type": "function",
            "name": "registerStrategy",
            "inputs": [
                {
                    "name": "strategy",
                    "type": "address",
                    "internalType": "address"
                },
                {
                    "name": "params",
                    "type": "bytes",
                    "internalType": "bytes"
                }
            ],
            "outputs": [],
            "stateMutability": "nonpayable"
        },
        {
            "type": "function",
            "name": "renounceOwnership",
            "inputs": [],
            "outputs": [],
            "stateMutability": "nonpayable"
        },
        {
            "type": "function",
            "name": "repay",
            "inputs": [
                {
                    "name": "asset",
                    "type": "address",
                    "internalType": "address"
                },
                {
                    "name": "amount",
                    "type": "uint256",
                    "internalType": "uint256"
                },
                {
                    "name": "interestRateMode",
                    "type": "uint256",
                    "internalType": "uint256"
                }
            ],
            "outputs": [
                {
                    "name": "",
                    "type": "uint256",
                    "internalType": "uint256"
                }
            ],
            "stateMutability": "nonpayable"
        },
        {
            "type": "function",
            "name": "supply",
            "inputs": [
                {
                    "name": "asset",
                    "type": "address",
                    "internalType": "address"
                },
                {
                    "name": "amount",
                    "type": "uint256",
                    "internalType": "uint256"
                }
            ],
            "outputs": [],
            "stateMutability": "nonpayable"
        },
        {
            "type": "function",
            "name": "transferOwnership",
            "inputs": [
                {
                    "name": "newOwner",
                    "type": "address",
                    "internalType": "address"
                }
            ],
            "outputs": [],
            "stateMutability": "nonpayable"
        },
        {
            "type": "function",
            "name": "withdraw",
            "inputs": [
                {
                    "name": "asset",
                    "type": "address",
                    "internalType": "address"
                },
                {
                    "name": "amount",
                    "type": "uint256",
                    "internalType": "uint256"
                }
            ],
            "outputs": [],
            "stateMutability": "nonpayable"
        },
        {
            "type": "event",
            "name": "OwnershipTransferred",
            "inputs": [
                {
                    "name": "previousOwner",
                    "type": "address",
                    "indexed": true,
                    "internalType": "address"
                },
                {
                    "name": "newOwner",
                    "type": "address",
                    "indexed": true,
                    "internalType": "address"
                }
            ],
            "anonymous": false
        },
        {
            "type": "error",
            "name": "OwnableInvalidOwner",
            "inputs": [
                {
                    "name": "owner",
                    "type": "address",
                    "internalType": "address"
                }
            ]
        },
        {
            "type": "error",
            "name": "OwnableUnauthorizedAccount",
            "inputs": [
                {
                    "name": "account",
                    "type": "address",
                    "internalType": "address"
                }
            ]
        }
    ],
    "bytecode": {
        "object": "0x60c06040527387870bca3f3fd6335c3f4ce8392d69350b4fa4e26080525f60a05234801561002b575f5ffd5b50604051610d7f380380610d7f83398101604081905261004a916100d7565b806001600160a01b03811661007857604051631e4fbdf760e01b81525f600482015260240160405180910390fd5b61008181610088565b5050610104565b5f80546001600160a01b038381166001600160a01b0319831681178455604051919092169283917f8be0079c531659141344cd1fd0a4f28419497f9722a3daafe3b4186f6b6457e09190a35050565b5f602082840312156100e7575f5ffd5b81516001600160a01b03811681146100fd575f5ffd5b9392505050565b60805160a051610c2361015c5f395f818160ce015281816103ae015261065e01525f818161010d0152818161030a015281816103db015281816104a4015281816105b501528181610685015261074e0152610c235ff3fe608060405234801561000f575f5ffd5b50600436106100b1575f3560e01c80638da5cb5b1161006e5780638da5cb5b14610183578063c1bce0b714610193578063d1946dbc146101a6578063f2b9fdb8146101bb578063f2fde38b146101ce578063f3fef3a3146101e1575f5ffd5b80631c587352146100b55780633583849a146100c95780635466e24d14610108578063715018a614610147578063887a2f721461014f5780638cd2e0c714610162575b5f5ffd5b6100c76100c3366004610891565b5050565b005b6100f07f000000000000000000000000000000000000000000000000000000000000000081565b60405161ffff90911681526020015b60405180910390f35b61012f7f000000000000000000000000000000000000000000000000000000000000000081565b6040516001600160a01b0390911681526020016100ff565b6100c76101f4565b6100c761015d366004610938565b610207565b61017561017036600461094f565b6102d5565b6040519081526020016100ff565b5f546001600160a01b031661012f565b6100c76101a136600461094f565b61037e565b6101ae6104a0565b6040516100ff9190610981565b6100c76101c93660046109cc565b610529565b6100c76101dc3660046109f6565b6106e0565b6100c76101ef3660046109cc565b610722565b6101fc6107bd565b6102055f6107e9565b565b6002818154811061021a5761021a610a18565b5f91825260209091200154600180546001600160a01b03909216918390811061024557610245610a18565b905f5260205f200160405160240161025d9190610a2c565b60408051601f198184030181529181526020820180516001600160e01b03166304e2f55f60e11b179052516102929190610ad7565b5f60405180830381855af49150503d805f81146102ca576040519150601f19603f3d011682016040523d82523d5f602084013e6102cf565b606091505b50505050565b60405163573ade8160e01b81526001600160a01b03848116600483015260248201849052604482018390523060648301525f917f00000000000000000000000000000000000000000000000000000000000000009091169063573ade81906084016020604051808303815f875af1158015610352573d5f5f3e3d5ffd5b505050506040513d601f19601f820116820180604052508101906103769190610b03565b949350505050565b60405163a415bcad60e01b81526001600160a01b038481166004830152602482018490526044820183905261ffff7f00000000000000000000000000000000000000000000000000000000000000001660648301523060848301527f0000000000000000000000000000000000000000000000000000000000000000169063a415bcad9060a4015f604051808303815f87803b15801561041c575f5ffd5b505af115801561042e573d5f5f3e3d5ffd5b505060405163a9059cbb60e01b8152336004820152602481018590526001600160a01b038616925063a9059cbb91506044016020604051808303815f875af115801561047c573d5f5f3e3d5ffd5b505050506040513d601f19601f820116820180604052508101906102cf9190610b1a565b60607f00000000000000000000000000000000000000000000000000000000000000006001600160a01b031663d1946dbc6040518163ffffffff1660e01b81526004015f60405180830381865afa1580156104fd573d5f5f3e3d5ffd5b505050506040513d5f823e601f3d908101601f191682016040526105249190810190610b39565b905090565b6040516323b872dd60e01b8152336004820152306024820152604481018290526001600160a01b038316906323b872dd906064016020604051808303815f875af1158015610579573d5f5f3e3d5ffd5b505050506040513d601f19601f8201168201806040525081019061059d9190610b1a565b5060405163095ea7b360e01b81526001600160a01b037f0000000000000000000000000000000000000000000000000000000000000000811660048301526024820183905283169063095ea7b3906044016020604051808303815f875af115801561060a573d5f5f3e3d5ffd5b505050506040513d601f19601f8201168201806040525081019061062e9190610b1a565b5060405163617ba03760e01b81526001600160a01b0383811660048301526024820183905230604483015261ffff7f00000000000000000000000000000000000000000000000000000000000000001660648301527f0000000000000000000000000000000000000000000000000000000000000000169063617ba037906084015f604051808303815f87803b1580156106c6575f5ffd5b505af11580156106d8573d5f5f3e3d5ffd5b505050505050565b6106e86107bd565b6001600160a01b03811661071657604051631e4fbdf760e01b81525f60048201526024015b60405180910390fd5b61071f816107e9565b50565b604051631a4ca37b60e21b81526001600160a01b038381166004830152602482018390523360448301527f000000000000000000000000000000000000000000000000000000000000000016906369328dec906064016020604051808303815f875af1158015610794573d5f5f3e3d5ffd5b505050506040513d601f19601f820116820180604052508101906107b89190610b03565b505050565b5f546001600160a01b031633146102055760405163118cdaa760e01b815233600482015260240161070d565b5f80546001600160a01b038381166001600160a01b0319831681178455604051919092169283917f8be0079c531659141344cd1fd0a4f28419497f9722a3daafe3b4186f6b6457e09190a35050565b6001600160a01b038116811461071f575f5ffd5b634e487b7160e01b5f52604160045260245ffd5b604051601f8201601f1916810167ffffffffffffffff811182821017156108895761088961084c565b604052919050565b5f5f604083850312156108a2575f5ffd5b82356108ad81610838565b9150602083013567ffffffffffffffff8111156108c8575f5ffd5b8301601f810185136108d8575f5ffd5b803567ffffffffffffffff8111156108f2576108f261084c565b610905601f8201601f1916602001610860565b818152866020838501011115610919575f5ffd5b816020840160208301375f602083830101528093505050509250929050565b5f60208284031215610948575f5ffd5b5035919050565b5f5f5f60608486031215610961575f5ffd5b833561096c81610838565b95602085013595506040909401359392505050565b602080825282518282018190525f918401906040840190835b818110156109c15783516001600160a01b031683526020938401939092019160010161099a565b509095945050505050565b5f5f604083850312156109dd575f5ffd5b82356109e881610838565b946020939093013593505050565b5f60208284031215610a06575f5ffd5b8135610a1181610838565b9392505050565b634e487b7160e01b5f52603260045260245ffd5b602081525f5f83545f8160011c90506001821680610a4b57607f821691505b602082108103610a6957634e487b7160e01b5f52602260045260245ffd5b6020860182905260408601818015610a885760018114610a9e57610aca565b60ff198516825283151560051b82019550610aca565b5f898152602090205f5b85811015610ac457815484820152600190910190602001610aa8565b83019650505b5093979650505050505050565b5f82515f5b81811015610af65760208186018101518583015201610adc565b505f920191825250919050565b5f60208284031215610b13575f5ffd5b5051919050565b5f60208284031215610b2a575f5ffd5b81518015158114610a11575f5ffd5b5f60208284031215610b49575f5ffd5b815167ffffffffffffffff811115610b5f575f5ffd5b8201601f81018413610b6f575f5ffd5b805167ffffffffffffffff811115610b8957610b8961084c565b8060051b610b9960208201610860565b91825260208184018101929081019087841115610bb4575f5ffd5b6020850194505b83851015610be25784519250610bd083610838565b82825260209485019490910190610bbb565b97965050505050505056fea26469706673582212201a2686ba92a8aeae87f439f2a5b5f46725e3fc1dfd73ef79940faa27b4eef8a964736f6c634300081c0033",
        "linkReferences": {}
    },
    "methodIdentifiers": {
        "AAVE_POOL_ADDRESS()": "5466e24d",
        "REFERRAL_CODE()": "3583849a",
        "borrow(address,uint256,uint256)": "c1bce0b7",
        "executeStrategy(uint256)": "887a2f72",
        "getReservesList()": "d1946dbc",
        "owner()": "8da5cb5b",
        "registerStrategy(address,bytes)": "1c587352",
        "renounceOwnership()": "715018a6",
        "repay(address,uint256,uint256)": "8cd2e0c7",
        "supply(address,uint256)": "f2b9fdb8",
        "transferOwnership(address)": "f2fde38b",
        "withdraw(address,uint256)": "f3fef3a3"
    },
    "id": 72
}